Last login: Thu Jun  1 05:38:14 on ttys000
volkan@Volkan-MacBook-Pro Lottery % truffle migrate                    

Compiling your contracts...
===========================
> Everything is up to date, there is nothing to compile.


Starting migrations...
======================
> Network name:    'development'
> Network id:      1685587100092
> Block gas limit: 30000000 (0x1c9c380)


2_deploy_contracts.js
=====================

   Deploying 'Lottery'
   -------------------
   > transaction hash:    0x6745558bdccbc637e8442e451d963b645736728383485db8992e8933fe7a3397
   > Blocks: 0            Seconds: 0
   > contract address:    0x3319261b08Cdc8De2D6473d99E4dE010F002a122
   > block number:        1
   > block timestamp:     1685587131
   > account:             0x9839a37eCE03fC83ae1d082603921dE9D7F570D3
   > balance:             999.99121712275
   > gas used:            2602334 (0x27b55e)
   > gas price:           3.375 gwei
   > value sent:          0 ETH
   > total cost:          0.00878287725 ETH

   > Saving artifacts
   -------------------------------------
   > Total cost:       0.00878287725 ETH

Summary
=======
> Total deployments:   1
> Final cost:          0.00878287725 ETH


volkan@Volkan-MacBook-Pro Lottery % truffle console                    
truffle(development)> truffle exec test.js
Using network 'development'.

Adress:  0x9839a37eCE03fC83ae1d082603921dE9D7F570D3 Balance:  2000000000000000000
Adress:  0xC60EE01248b6C6300202C86245E10dEDD0d1186b Balance:  2000000000000000000
Adress:  0x4075e8271CE7bd5291B7A2d450531348d67bA9B1 Balance:  2000000000000000000
Adress:  0x5E737dE726744521D7f4D47EDC3f5e47a5C5b782 Balance:  2000000000000000000
Adress:  0xaf0Eaf5d4e1063B6178234512cc68012ad9310DB Balance:  2000000000000000000
Adress:  0x69Db313B14c10e64275fdbeb328B34F306D28B79 Balance:  2000000000000000000
Adress:  0xB35fE5E79619cCb21A1f362047C1fde5f71F0F66 Balance:  2000000000000000000
Adress:  0x8177F08Cc8016d4a3a1A6A7FCb3E2972fC53fc05 Balance:  2000000000000000000
Adress:  0xE3d144A7F3D045f0Bd643a327C1b55689eBb1aB2 Balance:  2000000000000000000
Adress:  0xa2D19C5933dc0af5b9a95DA2E8bC333873b814DC Balance:  2000000000000000000
Adress:  0xc72E7Ab265eb55947883D69D376c3Ef739d012dA Balance:  2000000000000000000
Adress:  0xf4781cCc64C0c1Ce5e37945aFED7e8145C18E4eB Balance:  2000000000000000000
Adress:  0x7cF3c42dDdaD3FD6Db5C8700C8a84E6826240eCB Balance:  2000000000000000000
Adress:  0x08512fB21fF11A11537E5B5B75B2500d5B66A109 Balance:  2000000000000000000
Adress:  0xAD0E8FF428E8e2adeb620A014820238D2d6F7216 Balance:  2000000000000000000
Adress:  0xe8872720054884ca7d335DD763f3d8a759646B5e Balance:  2000000000000000000
Adress:  0xC0111aAdd5A13eb47816Ef7b4865D5767cA2826c Balance:  2000000000000000000
Adress:  0x73A33A5C39550E1BBD7D7201711d0Be0ce8714BD Balance:  2000000000000000000
Adress:  0xd374f9F248B67471D777ca5BA3143f403A8984D9 Balance:  2000000000000000000
Adress:  0x5BE88Fdd4C8b691CC5A32Fe1B3a7d70c25cfc608 Balance:  2000000000000000000
Adress:  0xAE7261c9d5d2B9f305e23114aE88D98De26b44d3 Balance:  2000000000000000000
Adress:  0xF38916f867BF1E12930dcfD4315DD42fe714b938 Balance:  2000000000000000000
Adress:  0x39b8aca1545C3907AA13C9B48BD3DeA25DEBfe5E Balance:  2000000000000000000
Adress:  0xc42ef9522c2CB2Fd58a81BCe5D4eAeB3b4ED6493 Balance:  2000000000000000000
Adress:  0x364C84500c98876B460AEEbE0eEFfDFE24EBFcA9 Balance:  2000000000000000000
Adress:  0xbBAE730D6dcf5F55B8BF62501cead85b29A39A64 Balance:  2000000000000000000
Adress:  0xAeB6F0a5A57EFe6083E23D8D78299426c70b7BCF Balance:  2000000000000000000
Adress:  0xDB671C2228dbC6d5e591e747D42053585409bA3F Balance:  2000000000000000000
Adress:  0x31b069a63D5bb18685b20876aFd11dC90a21234E Balance:  2000000000000000000
Adress:  0xC57ab54B045A47AB15C2D726D7b8127e4612086e Balance:  2000000000000000000
Adress:  0x21dDDc104A80C01eaee5552E05229074AE6B253D Balance:  2000000000000000000
Adress:  0x36D1B77Cb8f50Ff0F3e35455512466d5d250fBf4 Balance:  2000000000000000000
Adress:  0xA1275F2A6BFc1ddb2a8d72C2F1ad6Fb612760A00 Balance:  2000000000000000000
Adress:  0x7D3DF09e6F5F966B5434c8EF59eBBC75C6BeA7D8 Balance:  2000000000000000000
Adress:  0xAB7629b352751b54f19A66331e455a912641507F Balance:  2000000000000000000
Adress:  0xD307362a1Ae1972DA864AB194e4699403002bA22 Balance:  2000000000000000000
Adress:  0x98877620400f6D11D60B709279286049e90e4208 Balance:  2000000000000000000
Adress:  0x27f9e0807dd03b5cc06328e9d406f23d7d08344f Balance:  2000000000000000000
Adress:  0xD154Fb7a75daCf0e04EB9a3c5b35EC3d47C878E4 Balance:  2000000000000000000
Adress:  0x5daB0aCaF1FDbeCD0C46DA179b35DD8871425B96 Balance:  2000000000000000000
Adress:  0xE68EF299a0e47f7667E7b83D97DAe938f1182A9b Balance:  2000000000000000000
Adress:  0x8C228210BB296A409595eD238C7eC8b469DF2ECA Balance:  2000000000000000000
Adress:  0x86e7ba7e48d93669388c09C62d358Bc33386fD0B Balance:  2000000000000000000
Adress:  0xF3bdC1f6377003fB5C90826fD36b9821C3067F79 Balance:  2000000000000000000
Adress:  0x1530Fe9F08365e33d7a63214287AFA861c9BaA00 Balance:  2000000000000000000
Adress:  0xfB74Fb910b78840Da699C06Bc769745309D04781 Balance:  2000000000000000000
Adress:  0x09b45454bb5c63Acd7A324b037e978b1803A8A1B Balance:  2000000000000000000
Adress:  0xd9dfA87a59D9CA7b319f7b5AFc553B663Aafa40D Balance:  2000000000000000000
Adress:  0xacCCeF280F5ca425b5354A100e57Fa2DBc979348 Balance:  2000000000000000000
Adress:  0x80C29BEfF78587f31Df4e09ca00C3216F6992A70 Balance:  2000000000000000000
Adress:  0x5e55828640aa36AeE35Afa6edC4Fa48b8De57b42 Balance:  2000000000000000000
Adress:  0x64742D8AAa49e7004ee99DdD5ca2C93aC903775f Balance:  2000000000000000000
Adress:  0xF2B02717273089790187e30d014056C6170eF045 Balance:  2000000000000000000
Adress:  0xC1E9bf0e70062a1a5B6C977cb00149fa2dA72Fa6 Balance:  2000000000000000000
Adress:  0xf528fbE124999203b8779233F296bB053F04f05D Balance:  2000000000000000000
Adress:  0x3E4ceD79d5278F22fE6889655BCE2b3a2d8A54Aa Balance:  2000000000000000000
Adress:  0x112bF1ad630498880dD54E29bEB16D67c73b2799 Balance:  2000000000000000000
Adress:  0x45937A40f88632a706fb3c3dda16d31ac180F224 Balance:  2000000000000000000
Adress:  0x10aFfC53B6377DEaC94aF22188aA30aeeab983A8 Balance:  2000000000000000000
Adress:  0x707B84D77f4503AB5c2bAd8C60e7C5Bc71D763c6 Balance:  2000000000000000000
Adress:  0x4827641876d9b08633B8506897F7B861392c821e Balance:  2000000000000000000
Adress:  0xb5360908cA9B130B450A7b9d8E830F320De3eb8D Balance:  2000000000000000000
Adress:  0xa4300d6a79fEcB03398e8979Ce586Ec2B2F06b7d Balance:  2000000000000000000
Adress:  0xD9fa35fb7B107Aaf6bCb25Df5718B746744f7032 Balance:  2000000000000000000
Adress:  0x02B1cDAA9A1451815f966fAd90a1651d3de8050c Balance:  2000000000000000000
Adress:  0xc84048B7D978A146bAf6f88f7F25930ba9B47Bd6 Balance:  2000000000000000000
Adress:  0x7D12E8ac7C41cE9379db7D2C54470898c5972002 Balance:  2000000000000000000
Adress:  0x9577B39EA672c749c49E7d469Db6fAA758306bDF Balance:  2000000000000000000
Adress:  0xd6b054D134CBe4eA5AF1bEd27a1061E1F07D6290 Balance:  2000000000000000000
Adress:  0x6A84405da46E9A3F152181C1bbf4b6Aa8229f997 Balance:  2000000000000000000
Adress:  0x0eA9c2535E4E42a1F40c84148638E89C98Aa1EFb Balance:  2000000000000000000
Adress:  0x2794FDb0675b11515A6BB3f98F5788221E004427 Balance:  2000000000000000000
Adress:  0x127Ab8DD41bc2a116a7962d08D6a38bCdb2EaEC0 Balance:  2000000000000000000
Adress:  0xEB8cec89e38cE97d3cED5b2d8F1A8CfA1f09CbDE Balance:  2000000000000000000
Adress:  0xF65C8b0570dA7ba4f78dA7109731b141cfEAA519 Balance:  2000000000000000000
Adress:  0x4db06a71A4C7deEfeed42Ea55e8979C58CfBab4F Balance:  2000000000000000000
Adress:  0x3893704f32E8758ea975f54965d91068b8C9A228 Balance:  2000000000000000000
Adress:  0x2B42ecbFe06f022F1ceA30381633205346314810 Balance:  2000000000000000000
Adress:  0x3af2373788b3c6fAE21888f36Aa87dEaa0517C4c Balance:  2000000000000000000
Adress:  0x0F03bE01a8Cf88581Fa3D845f9128b37f6c4852C Balance:  2000000000000000000
Adress:  0xADe9ACEcA244f2d81d46942f1A5075ffdAFD0C98 Balance:  2000000000000000000
Adress:  0xC290b11AEF155B004945A5b4cfCD703382907685 Balance:  2000000000000000000
Adress:  0xaEA033cfb7c78F2bF552c0af1E44d8f85e319D78 Balance:  2000000000000000000
Adress:  0xBB062745E29F2f3d6702a57fC5ceAA278A361935 Balance:  2000000000000000000
Adress:  0xa9f9A87A8Fcb4bC7013c56E5B22d55f0d8966523 Balance:  2000000000000000000
Adress:  0x25d88F636fC9b6f9Af4e929055E89CA72E98d32a Balance:  2000000000000000000
Adress:  0x0019bd957b782827BE9e464B4053a8D83d05Ce7f Balance:  2000000000000000000
Adress:  0xf75427ec39352f33BE6fa6fb23a0b4360794B745 Balance:  2000000000000000000
Adress:  0x598e1d0a4d71D57080f6BB8519DF1e121a87F42d Balance:  2000000000000000000
Adress:  0x77D12e88911E772890E311c1C5584ab5B5452bad Balance:  2000000000000000000
Adress:  0xF35E5Fd59f98fB997B8A16a518e61F448b4541F1 Balance:  2000000000000000000
Adress:  0xb5E01E799781294C1E110ca763151EdC0EBf5296 Balance:  2000000000000000000
Adress:  0xf69e8F163F5668CF546f55BF58C2675a8845A56D Balance:  2000000000000000000
Adress:  0x85B4866EBA650549162B952d78fFd8CE2F821D41 Balance:  2000000000000000000
Adress:  0x9b756f46E48C8E514749a2783d89B0eF076523D4 Balance:  2000000000000000000
Adress:  0xEdA3D9F5bf6282A313e5Ac3b3b703C61339a9ecf Balance:  2000000000000000000
Adress:  0x9eA3a02B254f6c160817f0156158eaef9B068379 Balance:  2000000000000000000
Adress:  0x4cB6419ba34f844c2BC1c4341D6dd6E3c726D0e5 Balance:  2000000000000000000
Adress:  0x4A2727F40e7F26e6498a7a600d6734d884Bed252 Balance:  2000000000000000000
Adress:  0x502617f91f77Be0616D227726c083f41Daf3B9d4 Balance:  2000000000000000000
Adress:  0x70aA6653Fa26f4fa0F6f6B15B7Af88F25CA01d02 Balance:  2000000000000000000
Adress:  0x0F1aA05449b910cC7B7B032C6b19b98F18a8Ab91 Balance:  2000000000000000000
Adress:  0x94E87478C955Aa7cDA14c40d2A09E8F2F62a8b7C Balance:  2000000000000000000
Adress:  0xeD983A3710413A439739DC58178C1102b168857F Balance:  2000000000000000000
Adress:  0x7653E5067310a4eDb2Ed0aEa81d71896CC24Ae09 Balance:  2000000000000000000
Adress:  0x887d3bE615Bcab046F2B8A4767a85826717F6cA3 Balance:  2000000000000000000
Adress:  0x82c46F6dC5b41A599979A9aadAd3B8E10C9cAcf8 Balance:  2000000000000000000
Adress:  0x57F65AB280a15717BD45Ab56b301a9f14f5b58ff Balance:  2000000000000000000
Adress:  0x8fb3C89C9BfDDE3394FEA57cE82D461c6ca2BB54 Balance:  2000000000000000000
Adress:  0x62d9812A75F320E0a7B1079984Bb77D04dDde1CC Balance:  2000000000000000000
Adress:  0xAbb923ff1F885BaF7a407d06acA9aE9dBb3d8D4C Balance:  2000000000000000000
Adress:  0x42aAE3E4964D9987AB6227D21096D5f2cb356635 Balance:  2000000000000000000
Adress:  0x81e38b08ef2185bE7f38bEc4359443Ec4f246dB0 Balance:  2000000000000000000
Adress:  0xf2bBb2CA6A354437Db7f1f1f890Ed2c2B3c539A6 Balance:  2000000000000000000
Adress:  0x9c757A224f277E75Ad325CDB6bB606E7641C1814 Balance:  2000000000000000000
Adress:  0xF1fFF2556bAC724E8aADe7F62c122045DB8518F2 Balance:  2000000000000000000
Adress:  0x7Cf1aF38DFb389Fca0B550BE8BE5cA4a6002587a Balance:  2000000000000000000
Adress:  0xB85BBD1f36691E93D3986359688CBF9c92f8D5C4 Balance:  2000000000000000000
Adress:  0x670207E2274bD79b72Ce7327B907e32A2beEb744 Balance:  2000000000000000000
Adress:  0xed9D991F8DD57561338E051Aa69C1B42Da0b65Bd Balance:  2000000000000000000
Adress:  0xF957DA70500Cc78288Ae66E6Cc0F01A655f73c04 Balance:  2000000000000000000
Adress:  0xcFf410D2f29cf1bEA5d55895bBBFf5D639d0634C Balance:  2000000000000000000
Adress:  0x3d31403F6AB4e6dcd1Fa3277E27F13501Fca0a70 Balance:  2000000000000000000
Adress:  0x003Ce5Eeb4b12DaBE50A2b7B43CbF8D202366F7C Balance:  2000000000000000000
Adress:  0x70A142b9809Fd15348bAa76864Dbd0BD9BbB8F70 Balance:  2000000000000000000
Adress:  0xAD5653c8C32d0a46d4Ecf7c2377E032794Fd59BD Balance:  2000000000000000000
Adress:  0xc375C6C57F4Ff1F733eE56c5F5567bdcbBc98F07 Balance:  2000000000000000000
Adress:  0x6d066FDBDcB638a510583B1537F929F554889859 Balance:  2000000000000000000
Adress:  0x46133140aD717A195F27263aC3f3C04f5e8f05C4 Balance:  2000000000000000000
Adress:  0xcef1c42Ba9E3D1d27dCff0461Ba6Ff30182C7F1E Balance:  2000000000000000000
Adress:  0x791A826B215cec4d774865D2c9230a3f7982d7b9 Balance:  2000000000000000000
Adress:  0xcEFF8a762817D1531D1C025d3b93267a89356Ee6 Balance:  2000000000000000000
Adress:  0xb65Ed3F62a31C27d0a5C917169A610Cf0c6D1c8B Balance:  2000000000000000000
Adress:  0xC47204AAB9DAa96E33C39DEc9BC13C9500119590 Balance:  2000000000000000000
Adress:  0x4BfbCaE0A5A63D0af5b4ec9687aD4364D9f33730 Balance:  2000000000000000000
Adress:  0xD22bb6481D667D59096b4B98c53fE44c1DB3E79b Balance:  2000000000000000000
Adress:  0xee8db84E11D284781259e7DECfd9C58595ae2657 Balance:  2000000000000000000
Adress:  0x2202AECaD8d0948fD9777A20A0A1735e4e309e47 Balance:  2000000000000000000
Adress:  0x62d9F736d33C5643bF5429242BD358A797405D96 Balance:  2000000000000000000
Adress:  0x276A04C02728Fd581aaCddC58cb81Af6A21942F0 Balance:  2000000000000000000
Adress:  0x2b2D055f0370b9B6c172EE5D1980b451294D39bE Balance:  2000000000000000000
Adress:  0x18d78Ad84A4fe3306C0d04c8E109BD900d6b91e4 Balance:  2000000000000000000
Adress:  0xF35cfB8cEc6B7F8DeEB938e6007bc1a62f6a84a9 Balance:  2000000000000000000
Adress:  0x2279f524c613444ebC58d7C335a466944fdb7ebE Balance:  2000000000000000000
Adress:  0xf191132038f5e646b170174F54e0f583A5d67669 Balance:  2000000000000000000
Adress:  0x6F79eabb62553D02cB7311Be635c6614ecc1192a Balance:  2000000000000000000
Adress:  0xCC0aF160ffA6a9a46C505BcB958f08b3e72880c5 Balance:  2000000000000000000
Adress:  0x38535fF072c0997aC53E81fE3E0d33D78b95E3D7 Balance:  2000000000000000000
Adress:  0x25795F5e71274f08Efe5125f0d6f094a28A094B9 Balance:  2000000000000000000
Adress:  0xd3fACBBDd874D42A8b991f3735956a9ac1e86bf8 Balance:  2000000000000000000
Adress:  0x4BAc3e3F412ceeFAB54257edCE1281ea608b2EdC Balance:  2000000000000000000
Adress:  0xbEd2803ae24051A17E49cb9147519F84564d8f3e Balance:  2000000000000000000
Adress:  0x3D6441545B6a81d3ce7C2E58413Ff95CBF3583b4 Balance:  2000000000000000000
Adress:  0x26d75bAf76d6A2E56d9E8C20C940dBc9f3159fe7 Balance:  2000000000000000000
Adress:  0x99e1c67540C3B0C0Ea2e4a71659AB2AA26E40c0a Balance:  2000000000000000000
Adress:  0x494A92438b44A40e181C251BAF9d6aCEE2666bEd Balance:  2000000000000000000
Adress:  0xFB51438be50d5e6Fc15Df6CBd590615759C20f32 Balance:  2000000000000000000
Adress:  0xB44981f9a1d5d3f9FE8DC3BB6C5E34Bd96e4b452 Balance:  2000000000000000000
Adress:  0x2a5Fff3633f984327bDa6809008160BA2B3F2ff0 Balance:  2000000000000000000
Adress:  0x408c8FFaA5563491374477E08E817EF99dFE1b04 Balance:  2000000000000000000
Adress:  0x6b4FF946AC24660217D021928b4b4e611B9b713D Balance:  2000000000000000000
Adress:  0x50e835E28eCec5CD17B7ffD4C6541198E9770D99 Balance:  2000000000000000000
Adress:  0x5b9E6836227E385f6fb285c2811A8eEFaFf499b7 Balance:  2000000000000000000
Adress:  0x9546e51aFDE9619B6c4a4cd6aaAC313C0021a190 Balance:  2000000000000000000
Adress:  0xCed6A146f052676d39A26f01e9D7fa701686ccC0 Balance:  2000000000000000000
Adress:  0x6A972d4C3858e9ccd7F2ffd4e4c1C4d2DCeC4349 Balance:  2000000000000000000
Adress:  0x5b58160cf9d494C1916F0A8BF91E594b75e97F2E Balance:  2000000000000000000
Adress:  0x373def92330e8b0591eC409fc8e341A44Cda8101 Balance:  2000000000000000000
Adress:  0xf06a893DdCD911acBbaBcfC7F7dcbE6359fF71cb Balance:  2000000000000000000
Adress:  0x232238D5424F1a4F6D34497c13F5620c824311a4 Balance:  2000000000000000000
Adress:  0x85F2797A9D979efde1E4d813D9fD873FcbB2A260 Balance:  2000000000000000000
Adress:  0xD5DBDE850ca22Cba4dBb52259FbcF20c9a581f8E Balance:  2000000000000000000
Adress:  0xE69712573a97ee5a12e312f414955865BDC702B2 Balance:  2000000000000000000
Adress:  0x8077D48e3c898f6b7C725F5231a734b2202E69bA Balance:  2000000000000000000
Adress:  0x4b22aE32eDAB35696aB5c137d22C131e4D375B1C Balance:  2000000000000000000
Adress:  0xdC526eC8b16f61D447C5756CB46710C709f0422b Balance:  2000000000000000000
Adress:  0xEf53a6cf55e73f46dA68DfE12370b1A2c1538C09 Balance:  2000000000000000000
Adress:  0xC0203E7E5C4765982FdaA9c7290929591d9188e8 Balance:  2000000000000000000
Adress:  0x59353072576DB1b689f05E488aED224B621d03A8 Balance:  2000000000000000000
Adress:  0x8bca7e34053E6B4ae5e37C52086cA1A13Dc3a346 Balance:  2000000000000000000
Adress:  0xae1038F7158f1230dB7555f69Ff9AaA3bB406Bd6 Balance:  2000000000000000000
Adress:  0x70CCC29021f555f8d4b7f54C2FC60FB239Af936f Balance:  2000000000000000000
Adress:  0xc92eAd7784e6a71165567509903BE399E50B98B6 Balance:  2000000000000000000
Adress:  0xa77C10528AE477E6F26a9f3Ab31A6277fd131e53 Balance:  2000000000000000000
Adress:  0x4296109fdbb543542975314dB1F1149AE1d7020f Balance:  2000000000000000000
Adress:  0x88AF3AF5c9ae3A6D655349B4505CDbBe3a7872BD Balance:  2000000000000000000
Adress:  0xAf881fd46C049678C48b29d0B704ebb725209785 Balance:  2000000000000000000
Adress:  0x3221C962CBf6A6349F074Ee88BC0E95B75CC8475 Balance:  2000000000000000000
Adress:  0x13F2b85Bd27c5ee7d345bF49CeE81E8535d7EDDD Balance:  2000000000000000000
Adress:  0x414a93db5E3970F8f3a8adA5D657128347113f23 Balance:  2000000000000000000
Adress:  0x2Ac2425b73e2f2b36E3A2FDB8fB047Be14fff7e7 Balance:  2000000000000000000
Adress:  0xBdDc72542C65f0E5a87f37d8Cf9C0DE79a064555 Balance:  2000000000000000000
Adress:  0x6de8C497d78bac766521A0888B68B86e360C87A3 Balance:  2000000000000000000
Adress:  0x63b70ECdB29c7b8a8363EE6c0a09f1c4B3B01924 Balance:  2000000000000000000
Adress:  0x42E442854788547eB6C14510231D38CC9A611628 Balance:  2000000000000000000
Adress:  0xC54cE2286499F0E364C01f71064b55A4e8475169 Balance:  2000000000000000000
Adress:  0x09764b4a1B5547F5822c5fEa1D36B51EE1299274 Balance:  2000000000000000000
Adress:  0xfd0386660Dd0382cBd76cF29991d37C18B66d177 Balance:  2000000000000000000
Adress:  0x86B999D1665ADa43a646a2848e320cf5304E84A6 Balance:  2000000000000000000
Adress:  0x14CB39CB8c0cDcC7E5dfA0EEE89C3906EA449726 Balance:  2000000000000000000
Adress:  0x04475E5153E71ef8CcB90acC0a85CbDe064856Bd Balance:  2000000000000000000
Adress:  0x366ebc8A8Ab5f0159E42bd2a3996cB3cC15CEB0f Balance:  2000000000000000000
Adress:  0xA850c2De85f3905925F06414fea036440Cc57A25 Balance:  2000000000000000000
Adress:  0x7768a1bB9aE37AFAc50B58deb57D3641BF39b5A1 Balance:  2000000000000000000
Adress:  0x49F1730940c7787c0BEaF363d9c6f1C1fb7c1d5f Balance:  2000000000000000000
Adress:  0x01A28026B0Fbc7FA96bb2E5624650aE4112f2198 Balance:  2000000000000000000
Adress:  0x2cd50aC5DFE02F7EcE8a62237D03ebE89708aA96 Balance:  2000000000000000000
Adress:  0x07246CDeCfDb1410dc06e42152b3717BD4607C7a Balance:  2000000000000000000
Adress:  0xD831c48b57d56f2b309909D7F9Cf1D666DDAd697 Balance:  2000000000000000000
Adress:  0xcE8Fe8835611847D6BD4930718a5d3311f70e162 Balance:  2000000000000000000
Adress:  0x7a36485A4EF13A4c830147732A705339Ee741720 Balance:  2000000000000000000
Adress:  0x585CFCD06aBE4493377F4DB0804C9c4E773A6213 Balance:  2000000000000000000
Adress:  0xB8415B106f08DfCFf5Ca67f6348983d3DF7500f2 Balance:  2000000000000000000
Adress:  0x32339b09691F8C91C7C43982B9f329f8c51F35b2 Balance:  2000000000000000000
Adress:  0x3a7fdA001100ab8a8671465921B381DE3BABE3D8 Balance:  2000000000000000000
Adress:  0x747d0687047e3f444aC317C2812d7355E455D5Ea Balance:  2000000000000000000
Adress:  0x395eED06975f94f735dF71f8b43E7bFc2Bb98da5 Balance:  2000000000000000000
Adress:  0xa26E8e68EA0B54A803006DE95aA9DAc5DF46AC4e Balance:  2000000000000000000
Adress:  0xbE9C442ab728499e86Fe4303D0D2a35cCdB4A207 Balance:  2000000000000000000
Adress:  0x3854D512A7ce98365D96283b6216A2ce288Cab19 Balance:  2000000000000000000
Adress:  0xf39106A8058065456C334F6712016039e773b4a2 Balance:  2000000000000000000
Adress:  0xB1c618fA4033f809B93179adf6D2Eb05a297cdD0 Balance:  2000000000000000000
Adress:  0x3017901a5246A49F7C7FDF543fd861F336d80755 Balance:  2000000000000000000
Adress:  0x8a54eD629eeF17b33473F6cBE6f473FE5807f9e3 Balance:  2000000000000000000
Adress:  0x8dCD13F96b3ab86fEC11609efD37a54Df1B8fF15 Balance:  2000000000000000000
Adress:  0x3e2d94f8F97d2221330a886562aA130243fcec72 Balance:  2000000000000000000
Adress:  0x44F390C9D90F52c2f30a692eb059AD9ad5425bF2 Balance:  2000000000000000000
Adress:  0xD54f89bBde25089BF9eA5259d4df5E080152281C Balance:  2000000000000000000
Adress:  0xf210DD3396d4eF823B0b29CE2942Ac8fb39e75bB Balance:  2000000000000000000
Adress:  0x10730Da6e58bc942b0f1322CDd56d38B098085C0 Balance:  2000000000000000000
Adress:  0x5b67F6027025cC468C96f3746e7c61DDcc61C079 Balance:  2000000000000000000
Adress:  0x7cBFb8295926556C7b15770c1c8ad6187c298541 Balance:  2000000000000000000
Adress:  0xcaA795f7D6944402073cFc707a4F0191F509B457 Balance:  2000000000000000000
Adress:  0x0A2C9f2761059e9de859cE4fEE26869949cfB265 Balance:  2000000000000000000
Adress:  0x98da11feC137884eC2A27c7b6e846E37fC1AfA4a Balance:  2000000000000000000
Adress:  0x5072130Dd0FAA823FAA69be97E206996aB44BF75 Balance:  2000000000000000000
Adress:  0x21B2909D6Bb112d70143C84F5228f3fdB1750ABa Balance:  2000000000000000000
Adress:  0x42C095e9cb2A313F3E5100d7B5c5007F208e8B6c Balance:  2000000000000000000
Adress:  0x2f8130495ed8c2602bA032C1Da829CccF2FcA4b8 Balance:  2000000000000000000
Adress:  0x43cF8F85987E0a2509eBB7Fcc4B743f584B8C9B3 Balance:  2000000000000000000
Adress:  0x974f1170ed1266459Aa808E170a53D27E3b8D3f9 Balance:  2000000000000000000
Adress:  0xBC770aBA6357D31a11BF627907ca3183c2B81cb0 Balance:  2000000000000000000
Adress:  0xcE01A08B3E0aAB7be87f083f21a4231D53E70e82 Balance:  2000000000000000000
Adress:  0x68C7b2Cf3911a17DCB450823853B902a0A4EF54e Balance:  2000000000000000000
Adress:  0x37E062cF6cab79A054ABfD33406D4762b6A6a2d9 Balance:  2000000000000000000
Adress:  0x296f0713670ADa5611FBc30F4016Dba6e7374472 Balance:  2000000000000000000
Adress:  0xe619FBeD4425a409876df0c09d6F793c80427DdA Balance:  2000000000000000000
Adress:  0x711321AdcF2eaB43F15425A8f7e8FC28aE2FaEf2 Balance:  2000000000000000000
Adress:  0x403E910a7a3fCE973ED553402e67cA898dA61977 Balance:  2000000000000000000
Adress:  0x1aAFd7A706682CC41A4A63fa3040dABc97eC2AD1 Balance:  2000000000000000000
Adress:  0xF049E31B50B098f707463749351381927c558b02 Balance:  2000000000000000000
Adress:  0xC3AB008f0fBd0541eE2d262C1D9a4520A6E76354 Balance:  2000000000000000000
Adress:  0x189EC4679116E46f7e0Db4f7179EFCcEAb842df6 Balance:  2000000000000000000
Adress:  0xc78Ee2751CBb6E50B837Fbd7210c22D33a915BFc Balance:  2000000000000000000
Adress:  0xC4704dc4032Db8374A97032A4EED24C564e6bCa1 Balance:  2000000000000000000
Adress:  0x372443586AA3E3C15910f8E034221F031d750026 Balance:  2000000000000000000
Adress:  0x4e554d47f7c3faFF10733f7c844Fd3A57484c829 Balance:  2000000000000000000
Adress:  0x95bc4a49D2ce09aF42aac6dBFb1E7d18ba0C2dDd Balance:  2000000000000000000
Adress:  0xfEDdE1346219222b412Ef7879AD09E1AEa43deb3 Balance:  2000000000000000000
Adress:  0xF61548c3637c5FB3AA98B851515601b8b87A8f91 Balance:  2000000000000000000
Adress:  0xd1C6AC8eDeE6AC0594Ebe9e4D60d11B693CE3312 Balance:  2000000000000000000
Adress:  0x5438e56B75df67A431801Db9922591aE7B12778d Balance:  2000000000000000000
Adress:  0x8fe3D5c801F65007B2dE70b96878d3371f8D17aA Balance:  2000000000000000000
Adress:  0x7f5A139cBfBc6FD5D3b109cef30066fFc1F1b426 Balance:  2000000000000000000
Adress:  0xf5Ff88b6F3856a30cd79534aD386163E4cD0b99C Balance:  2000000000000000000
Adress:  0xe327db79C5d8f5FB7c18e8A93d2713eCe3677FF5 Balance:  2000000000000000000
Adress:  0x5CDD3eAB83422c7168a86356Ac275B8319CF6949 Balance:  2000000000000000000
Adress:  0xCb509D3524686ED08259e03A6AB299d19b88d3eC Balance:  2000000000000000000
Adress:  0x92F19B28DDE0987BEEb2484D31f3c34f40153a5a Balance:  2000000000000000000
Adress:  0x4BAC9CAA8E75e5473F44F0f56C00c962d4B277C5 Balance:  2000000000000000000
Adress:  0x5cEd078657F6f3b4fB35131F452510f37B66580f Balance:  2000000000000000000
Adress:  0x7204e21dD247c78756Fd25B3Dd0BD3E993EE257c Balance:  2000000000000000000
Adress:  0x6760ec301190C2330d5755F8CAcE294349D196c9 Balance:  2000000000000000000
Adress:  0xEd94F6f161793161590274dB8878095029CaE260 Balance:  2000000000000000000
Adress:  0x342e54E829a10aeF573aec891d9e4e9B409f27FF Balance:  2000000000000000000
Adress:  0x99DF67E26C1C40F69635f3A84e6e23802efC2c23 Balance:  2000000000000000000
Adress:  0xa942751Aa52C304790305E14732bF18e89FD8Bf8 Balance:  2000000000000000000
Adress:  0x4FA8C6Edc27814722830fDa64D49dA374B98C6aA Balance:  2000000000000000000
Adress:  0xD157b9fCA81665FDd16441D942050a5bEFF790ae Balance:  2000000000000000000
Adress:  0xbf78b854FCAd7662ae32a377971e22DcDD12A394 Balance:  2000000000000000000
Adress:  0x6fb4175895C0bA54498227779d87F4dF67e7cD4c Balance:  2000000000000000000
Adress:  0x86fF28fCBf016fD426153DF9f5651BbcD2b5099b Balance:  2000000000000000000
Adress:  0x18001Ce2955314073979f03617Fb6E9121CfD1e0 Balance:  2000000000000000000
Adress:  0x63615F235CB8A696e6C96f23155Eb6c7dc5ebC0C Balance:  2000000000000000000
Adress:  0x354fFC2e9ea19B038D86b46138bC226E4C3bBEbc Balance:  2000000000000000000
Adress:  0x74099D038C5441637bb67670fE3625eB29288dcf Balance:  2000000000000000000
Adress:  0x96F87dAD014c096D4316bCbfD0aBF846DDe85A07 Balance:  2000000000000000000
Adress:  0x4BFa6F83FCFC7C5C18f3288891B15712907C6cE4 Balance:  2000000000000000000
Adress:  0x27Cf3453b330eDcD3add600B95931377283F735e Balance:  2000000000000000000
Adress:  0x49C46583FF5342Aa9fC40d281598AD1A710C4B00 Balance:  2000000000000000000
Adress:  0x60F7bDEe0C68A2913A92f78c13ab7c0e841d1ae2 Balance:  2000000000000000000
Adress:  0x04a3a395f91e4C51FC1cFA1Cbdf83bd696385539 Balance:  2000000000000000000
Adress:  0x38cd314d3746d1eD944216F1526536e65783b1aA Balance:  2000000000000000000
Adress:  0x4Cd103412a19685F12e167885B64Cf6f6807d84c Balance:  2000000000000000000
Adress:  0xf8c467fcF5f38aEcc344E3DfDdE64A5f2dbF167f Balance:  2000000000000000000
Adress:  0x31Aa91DedA2906CDA68495c54ad5e99d6e92C1Ad Balance:  2000000000000000000
Adress:  0x6CDC1aEba9cff6CA71b034C4087106dD276e27EA Balance:  2000000000000000000
Adress:  0xd81bFF193b78E9d4Cc9B31f27e4B31C369F876E6 Balance:  2000000000000000000
Adress:  0xBD8f5A55f211492c16CfaB67ba88D943BbaC67B8 Balance:  2000000000000000000
Adress:  0xEf05EAA94fa9afb818C57C5E0acE1B9Fa392AF48 Balance:  2000000000000000000
Adress:  0x640F06eEd90B1731a3C8983cACc97D7f3aE2e07A Balance:  2000000000000000000
Adress:  0xf4E6f6B97Bd203cD0688A22A5fFe818A31B9FD7C Balance:  2000000000000000000
Adress:  0xa1da2fDC3AD5f90667952713Dc0c99326523401c Balance:  2000000000000000000
Adress:  0xd324b4831267E7b9cC557a74946e5202FD31ddcE Balance:  2000000000000000000
Adress:  0x7fA15417e531e0949E3F3A46048677A98cFd54F7 Balance:  2000000000000000000
Adress:  0xF5570549c36e627A2A2d71305eB67A646ad2091E Balance:  2000000000000000000
Adress:  0x4Fe72d535bf034de19a60195583C77aAA5EFEadD Balance:  2000000000000000000
Adress:  0xc06193bF6edB6F4a6bD1223dec676a745Be4A9d6 Balance:  2000000000000000000
Adress:  0x12e12f1B5aC57f93b10f2Db5F3e1b87B5Bf0A19f Balance:  2000000000000000000
Adress:  0x376d7b992be7f052220736a92fd0a7CF6887e8D7 Balance:  2000000000000000000
Adress:  0xE42e088BD44067AAfFf2ACa10aED8cAa984ed64B Balance:  2000000000000000000
Adress:  0x656875bC9758c6F88ca3F1168FBa2A08F04E9474 Balance:  2000000000000000000
Adress:  0x9d2A2FfDE6a0Da7b3ebcFF9067F051e3B9ebA380 Balance:  2000000000000000000
Adress:  0x9a43A00Ec465Cab36A4CB883fdF32aa562D8DE67 Balance:  2000000000000000000
Adress:  0x8DC58E2fF2cead670fF4DD86Ea8718049CaD4242 Balance:  2000000000000000000
Adress:  0x288Ac8327aD9C05615C5536eC697D7bCb6D72869 Balance:  2000000000000000000
Adress:  0x1F8414fB3cA40D4A6e7d08768B9399bDD9B1Ebe9 Balance:  2000000000000000000
Adress:  0xB0f6Eb2d9177adF6206a438CA30aCaA048E05378 Balance:  2000000000000000000
Adress:  0x96D331Dd4f956F9d4B78d92532661B64D6242fF1 Balance:  2000000000000000000
Adress:  0x3d3af4186020d5a5f6f6E4a384B04493008187Fe Balance:  2000000000000000000
Adress:  0xBC72CD6c0044b2BaF645513989833Ac57F10bB0A Balance:  2000000000000000000
Adress:  0xf79DbDb614BbC18E864FA1f08220927136069d41 Balance:  2000000000000000000
Adress:  0x7e23BBf9A630F05caFC681251fC58CDB37D46172 Balance:  2000000000000000000
Adress:  0x905b439A70039fd6F6f2E0780f00C462D6C4d3FF Balance:  2000000000000000000
Adress:  0xce9CD632c143B633eb9339148F66BC1308086A91 Balance:  2000000000000000000
Adress:  0x0979c28DC3d05465313031F9f3573f29554a5932 Balance:  2000000000000000000
Adress:  0xd91698F7f76DCF95B03cDFd265c48d960778236a Balance:  2000000000000000000
Adress:  0x8cC878A98c567b3aE44E833d3dbf1854fd92dcE4 Balance:  2000000000000000000
Adress:  0xB600bf1962b466c39dabcB74875391f758A130c1 Balance:  2000000000000000000
Adress:  0xe17bB4CfF6A0081A7376E0AC7a4b282113c6173B Balance:  2000000000000000000
Adress:  0x2a2C6898a76cb81d39e2E90815810c588a36a8F5 Balance:  2000000000000000000
Adress:  0x2Fda2568714f3a896D7ABCB557Bf0EC96ac55486 Balance:  2000000000000000000
Adress:  0x62Fc536678B441Ab53267884C6eDd562f9FCe420 Balance:  2000000000000000000
Adress:  0x21C97EF648467E51B1b3930b0d565dc0636Fa897 Balance:  2000000000000000000
Adress:  0x23a0e9c9282C5A0AC80ee0ea11025CE7421e1921 Balance:  2000000000000000000
Adress:  0xfF4cf48dC9F6eB05C0A807A4B7da313d91CaBc66 Balance:  2000000000000000000
Adress:  0xE98a8afe05fE4AC86705E7CfcD1510c0A88a387e Balance:  2000000000000000000
Adress:  0xe8B9E10F3e6841fD358d006Ce0E5dF7A1269cb82 Balance:  2000000000000000000
Adress:  0xa0Af5b5139dCA3Fe0E186F9F10fD7258707aee17 Balance:  2000000000000000000
Adress:  0xff555022c60add82097645Da6f4AE12A5C09E2aa Balance:  2000000000000000000
Adress:  0xFb400445E5c6A98095a0c8466d0abC8c40eA4351 Balance:  2000000000000000000
Adress:  0x05F9Cad49eaa364e87458bBB2A9357D8AF9CECe1 Balance:  2000000000000000000
Adress:  0xFA3135a6a40Bffb59303909AFA73183ba411D0aB Balance:  2000000000000000000
Adress:  0xEEfAe8f78e3c2518CBfF91212711f8cfEd419F12 Balance:  2000000000000000000
Adress:  0xBB5B9Bff7087a0a8F2CA042cd7DB53e9AC9979FF Balance:  2000000000000000000
Adress:  0x84bEa420E426a5140faf541a75e1DFfA941048E2 Balance:  2000000000000000000
Adress:  0x5d02cDa8765bD1D6e8516206615C598BDe33aAC1 Balance:  2000000000000000000
Adress:  0x85fc7a9A30C6a9244069238462607367A2001715 Balance:  2000000000000000000
Adress:  0xF35483Ea77da624Ec8Dd28f431A96c8508438EdF Balance:  2000000000000000000
Adress:  0xa07dD27D9F7f66Ad8Eb150D35B34a88804aB31FE Balance:  2000000000000000000
Adress:  0xf7834E9A4B1d75E1BAb48F0434420dEA8a91431c Balance:  2000000000000000000
Adress:  0xc1F88EF714BEFec8fc68bfBCE37D39Bab1353fE3 Balance:  2000000000000000000
Adress:  0xA800905004aFE5E3C336ED9abEA53FF5B7C02960 Balance:  2000000000000000000
Adress:  0x8dc5F3825967A90042c0988822742fB001f5a89E Balance:  2000000000000000000
Adress:  0xE4367787a6E2F1A393345e589AbB1ac37A294881 Balance:  2000000000000000000
Adress:  0xac8f3Fa056e800Fe8A70C182BfE7423D0847e1F3 Balance:  2000000000000000000
Adress:  0x49CF1AA16A28B5020506f2c10047089dB11D4162 Balance:  2000000000000000000
Adress:  0x6cc9Ef5e41Fe86B2F12C2b4Ac7F83Ccba2dcb570 Balance:  2000000000000000000
Adress:  0x308CfF4Bee3Bdd41F3B72765cFB89c67D0b0Ffea Balance:  2000000000000000000
Adress:  0x15434C9e1dD8e1C25413a8E67452321808D309D7 Balance:  2000000000000000000
Adress:  0x7Ad32A6C689fbe908fe6108d7dF8f9423E4D8Df7 Balance:  2000000000000000000
Adress:  0x1A13b7e2185B1E163db555F4F972A36D7D4c5A66 Balance:  2000000000000000000
Adress:  0xF7626e139A18585b60aF7297Ec70e57E646E14EE Balance:  2000000000000000000
Adress:  0x74677617Dff9f308D98d901366a13432fa9CCC0d Balance:  2000000000000000000
Adress:  0x681f01b387924e6a1048B4125d2adC284D567A62 Balance:  2000000000000000000
Adress:  0x603224787367A928382a25287789968E6E048588 Balance:  2000000000000000000
Adress:  0xCC9028D00D4723e7a97018683512DbbB2CE7CF75 Balance:  2000000000000000000
Adress:  0x590F78FB6AD7384C39f3DbBd6Dc992F7FEd1bBfc Balance:  2000000000000000000
Adress:  0xa372f28364557B0b9C7960F83e572E98f2291Fba Balance:  2000000000000000000
Adress:  0x993655da5701A0839Cbe93170628A9CD1D3bde67 Balance:  2000000000000000000
Adress:  0x1a45906688bb871F69BE741c8273372dbCAf6059 Balance:  2000000000000000000
Adress:  0x3f6006CcFD34fA24C04c287e8036C8aD96DF1820 Balance:  2000000000000000000
Adress:  0x9405b5f9348B9520aBD31c86D09c013Eb57b0FbE Balance:  2000000000000000000
Adress:  0x116D41dF613ce12D3171Eb9619f1f28977FfABdC Balance:  2000000000000000000
Adress:  0x57B16cd42693B9741D4778a0eE84332dDA1DF397 Balance:  2000000000000000000
Adress:  0x9f09cCe168aD20F64C9bda4Cf9E0A309034bb81D Balance:  2000000000000000000
Adress:  0xFA91913d55aAC240267bA8F5c9434fcF9144d7D0 Balance:  2000000000000000000
Adress:  0x41D577D7d69E4B92De5670D1D69e221F37C70e4D Balance:  2000000000000000000
Adress:  0x5eAa789eC2CD0A3f86202de55d439847b4010368 Balance:  2000000000000000000
Adress:  0xF327eD8Cd59Bbeaa64780058c03CbF8866AED582 Balance:  2000000000000000000
Adress:  0x8c3ACA1Ec228E674a755D8f458A040Fe27669Ee3 Balance:  2000000000000000000
Adress:  0x8022703e71F0058B70c84E26b1A7Df288b4E8325 Balance:  2000000000000000000
Adress:  0x8c5B9Afc80a9830E966f171370E99C894A7C1071 Balance:  2000000000000000000
Adress:  0xC143d1392dab27CEeA4Dd912Af3640B7e074B01b Balance:  2000000000000000000
Adress:  0x0BB4c71d356f50c62C540eC1454a87ed63815E05 Balance:  2000000000000000000
Adress:  0x2dca20e3F76FB4c1b537b51D571c5c53c9baB01c Balance:  2000000000000000000
Adress:  0xbA561973Bc0e259Fb16c3834b9f05787f5F2102E Balance:  2000000000000000000
Adress:  0x799f95b0D0DD4d24d26a2F6f52D0eDE00732b2c3 Balance:  2000000000000000000
Adress:  0x6C80e9790c8bD3B59A1c7E511F89417059675A97 Balance:  2000000000000000000
Adress:  0xd52a327f9b8c882f064041E88C6b7a71C035Ca0f Balance:  2000000000000000000
Adress:  0x57112A88a3Ad94A2e8469a26D03bB579AFfd9E3d Balance:  2000000000000000000
Adress:  0xb3C1865A973C7c9C3f68247eec7E1368e00Ca930 Balance:  2000000000000000000
Adress:  0x792d93976041b31D4BB6DE6c722ae93bA4e336D4 Balance:  2000000000000000000
Adress:  0x4732e3ba800200B78AE754d5B1D93dd3e24F7eC8 Balance:  2000000000000000000
Adress:  0xF6EECE94f62a76144369B6f91385DA3b74e56C79 Balance:  2000000000000000000
Adress:  0xAa4960c25A094692387829c729137550DD63820A Balance:  2000000000000000000
Adress:  0xcEF7e26098158bA24b9019DF77C99bFB16966D09 Balance:  2000000000000000000
Adress:  0xD949DcABC095Cfbaead22242A008E56D3BAe19cB Balance:  2000000000000000000
Adress:  0x7f8E3134B73b86eEB6AD1D5154dfb4E97779716f Balance:  2000000000000000000
Adress:  0x8Fc8e60EEB49d0e326d2698CD2D76806c1029B31 Balance:  2000000000000000000
Adress:  0xEF8276d55d1A8cBd62572E8D0Aab5A5Ca62E6ffC Balance:  2000000000000000000
Adress:  0x41f668cfB7ebBE972EA7Bf9A508cf013c5388fC4 Balance:  2000000000000000000
Adress:  0x233DEB3a768ca98582Efb67cD414A7B1f5b587a0 Balance:  2000000000000000000
Adress:  0x8A2432FC08d54d545Ba70902c368b416f99B3aed Balance:  2000000000000000000
Adress:  0xA657D07E9eb52dE4E2ed77F8ef14b0FfD63bCb34 Balance:  2000000000000000000
Adress:  0x4D9BF25a43c98A8b92d789c3D5Dfa22EaC2e61c3 Balance:  2000000000000000000
Adress:  0x983EF7887e49DD3af29638690bd02FE319537A19 Balance:  2000000000000000000
Adress:  0xF04C343e07E6635ed3FB99799cD3f3cfD59B6706 Balance:  2000000000000000000
Adress:  0xd4b81A17913424C4D4F8b675299E994089e08ea6 Balance:  2000000000000000000
Adress:  0x32c93b6A045Bfc1a36097C9DA24F2DfE80a621e0 Balance:  2000000000000000000
Adress:  0xfA11bbe6a0eA0e96D16378b7B263A2B81aEC7693 Balance:  2000000000000000000
Adress:  0xaC989fb2040fa1F3b9Ea562bd4c428ABae612641 Balance:  2000000000000000000
Adress:  0x84827993Fb7746B7d9266F08BBCB9bcCe47Ac7EE Balance:  2000000000000000000
Adress:  0xEFAaA2E4Aed1D8F6Cb03230d45d098F55128E1a0 Balance:  2000000000000000000
Adress:  0xA604b31e7D3510E04E9034e987666a6619725153 Balance:  2000000000000000000
Adress:  0xe3622A0Ea496723C07AFC8E845B08f2134bCDc98 Balance:  2000000000000000000
Adress:  0x012B99d0C77bd5a9DDf7505FEC91A3097b7609A4 Balance:  2000000000000000000
Adress:  0xea8f7FfE99e24d137604841EA88b47Ab160A5d1e Balance:  2000000000000000000
Adress:  0x4706Baaea73BbbA53CcFec4b914fc583FEC5c769 Balance:  2000000000000000000
Adress:  0xE93cE450451315322df8dE58A7aEEf72fEf88937 Balance:  2000000000000000000
Adress:  0x7882AEb0c64e61eb2DaE797bd485bEa86F6361B4 Balance:  2000000000000000000
Adress:  0xa8A31ee3C248c1281CD4F5bC494E0804AbE7Fa60 Balance:  2000000000000000000
Adress:  0x6b1102685e016c20F8B1Df4155773c9e619b59F6 Balance:  2000000000000000000
Adress:  0x396eD4a969f6167C9561a7aD8d07160daa2C78a3 Balance:  2000000000000000000
Adress:  0x252392C74a3fe1fA1958f9Ea123F189A69B8F98a Balance:  2000000000000000000
Adress:  0x13B58369F058175cC66eDD5f432DEFB8Bf7e665b Balance:  2000000000000000000
Adress:  0x4bEF84bF0a265d48f2Ff1099C9567D4094bE2321 Balance:  2000000000000000000
Adress:  0xb210fd712058c4f1c4f079be96600c713A71cbc2 Balance:  2000000000000000000
Adress:  0xF13acf2197f73AEC52039D02119F235A71A63B35 Balance:  2000000000000000000
Adress:  0x6b8135ef414A8Ec7DB2269Ac832594f40d6376D8 Balance:  2000000000000000000
Adress:  0x10a34388CdF04143A38F254563d89786536b5A0B Balance:  2000000000000000000
Adress:  0x0D56D6A84F61C2e3974296974418DF762006e735 Balance:  2000000000000000000
Adress:  0x19fBd3e94928457BDD4A928db0E0bDeE380bCf54 Balance:  2000000000000000000
Adress:  0x865b12Aae9bc260Aa16dC6cdF020Af7b84eF90A5 Balance:  2000000000000000000
Adress:  0xf88bD805F3d54d605a6Da44039c5CBd8d836a118 Balance:  2000000000000000000
Adress:  0xF4524650b2432493508BbBd1Cf732dA12dfB3f64 Balance:  2000000000000000000
Adress:  0x09285BE85FfbE558a362a677aED885158780475f Balance:  2000000000000000000
Adress:  0x787FC76C5325BE03FFeEa6CBB839a23E0443e147 Balance:  2000000000000000000
Adress:  0xf9452ffAfBBd14D3077CfF83b115D3c9e98826A5 Balance:  2000000000000000000
Adress:  0xF9782a667431F81A67927c54Cf33201aC75349FF Balance:  2000000000000000000
Adress:  0x8F0d27B8323FFcd5Ed46A51d5E6FA53d7E42C51c Balance:  2000000000000000000
Adress:  0x2C192076408b17C7B3312eDdC8Ff02385dbC609B Balance:  2000000000000000000
Adress:  0x5F73284Fc4a4aB3b1600F66F5e94A7f0A4c22047 Balance:  2000000000000000000
Adress:  0xCC18d5E1235BF762E05bb6A46ABac4194e21cdd2 Balance:  2000000000000000000
Adress:  0x15Ed6BbdfD012A0fa436942AcF3536BD59eA76f3 Balance:  2000000000000000000
Adress:  0xF424BD797bDB9AA9f3D6feAe26f061A140915598 Balance:  2000000000000000000
Adress:  0x94d2e07913Beb8954306636517A8104e786B9111 Balance:  2000000000000000000
Adress:  0x99E4E871dA5BDf1A303e448Ff2A54d231154A44B Balance:  2000000000000000000
Adress:  0xCF871741fbcdcA91F4d6C1dC20844D25030d0DbD Balance:  2000000000000000000
Adress:  0x68bd6317a1182960cA1fb38E5bE212b8fBddd06d Balance:  2000000000000000000
Adress:  0x107b701EE677A705e89dB22e903D2e66B1d9276B Balance:  2000000000000000000
Adress:  0xe12df5E83b2b7E36a0C377e558531CF855A51718 Balance:  2000000000000000000
Adress:  0x1ad11d81E58190BF87507d05420D48F5316278D7 Balance:  2000000000000000000
Adress:  0x4FCF7218e96eA2e2AFEC3024eb21f43B3E27f283 Balance:  2000000000000000000
Adress:  0xbE843710f59252a4299283324AE88328e688c3c1 Balance:  2000000000000000000
Adress:  0xA0210323a3F117945b1a9a3C9837c5E739F2FE75 Balance:  2000000000000000000
Adress:  0x222cD45f8A7D5C67FF417F80fF27a0aB606dc0e7 Balance:  2000000000000000000
Adress:  0x42f7Ac85B2bAC4c7a033847D8E30E5B5D3e263b3 Balance:  2000000000000000000
Adress:  0x6F70ee66E94DF59F7d0D57F569b10a38330a6883 Balance:  2000000000000000000
Adress:  0x918Ad79a57d37C34F49D84f82303961aBDB739f1 Balance:  2000000000000000000
Adress:  0x0945cE6a52a3f2EA71C050B33732eB58DB9238A3 Balance:  2000000000000000000
Adress:  0x8E7Cf70a32d51c2916d9d77AFE01bD974922c1aE Balance:  2000000000000000000
Adress:  0x8418586414238766ff589C5D559Ef3145Cdb2BF3 Balance:  2000000000000000000
Adress:  0x5BD29d5B94Ba93385b75E5B2E07f4f2B3E2d918E Balance:  2000000000000000000
Adress:  0xfaB442860cAdD3742908EbF59F933B30C7999F89 Balance:  2000000000000000000
Adress:  0xf4Bb14C1b2974bb7B1769b07cf5774de7d673b3C Balance:  2000000000000000000
Adress:  0x5910d2c554CB20CA70195447435D4985170920e0 Balance:  2000000000000000000
Adress:  0x6Ab9d18c821063C236A4981D22926D30D859bE9e Balance:  2000000000000000000
Adress:  0xcB97ADc9f28CA4eeC7F84f936D6188672023cAD2 Balance:  2000000000000000000
Adress:  0x19A5e2b44F25F9BB141dDd1aB6860d7925ac1c5d Balance:  2000000000000000000
Adress:  0x08f4E07916931d42f1c9857A49A56DCE96F2e68d Balance:  2000000000000000000
Adress:  0xe22bB4398A9770BCC5428072EA861b3dfBAa4102 Balance:  2000000000000000000
Adress:  0x4685ABefbdb45Cda53E06575af5e5A91b1c94A5e Balance:  2000000000000000000
Adress:  0x5865Bbf6c693b5f3639231C918FaAc572134CA58 Balance:  2000000000000000000
Adress:  0x9CcD7A8A2552Bb0b4a127861F7C69ae27aDA9360 Balance:  2000000000000000000
Adress:  0x44E1457e4871AFCa660F8dDF81e7AC8Dd09B50E8 Balance:  2000000000000000000
Adress:  0xec8E835B6D421b801de2C7F67372181c8Aa79001 Balance:  2000000000000000000
Adress:  0xA8C9fbF13B6fE316c72619E01488610B6e46A563 Balance:  2000000000000000000
Adress:  0x25260dd7D0839731A6cddfBe156C90BE2d552A2c Balance:  2000000000000000000
Adress:  0x62F24ffaCAE60240607A5fF36e03709C29AfF511 Balance:  2000000000000000000
Adress:  0xd15e8e93caf6adE14c5bad88FB3a9aef1Cb58796 Balance:  2000000000000000000
Adress:  0x908Bec45679F4b6Ee047Ab4D9124B4ba0ccf23Af Balance:  2000000000000000000
Adress:  0xEefA1Fdda7cDF8B58451C4EBA20A741571C8C2Ab Balance:  2000000000000000000
Adress:  0x7282fFa42B88AB3Bd65Cc5eCf047F90d021694E1 Balance:  2000000000000000000
Adress:  0x3EE810cfA9c995207D2De86774cf89ac12915083 Balance:  2000000000000000000
Adress:  0xdc9dffdb44C9B6dc9Cd9b5aEd164D70393B4572D Balance:  2000000000000000000
Adress:  0xd9e6950FDC8335De0D68DA16855d506F33b1c72D Balance:  2000000000000000000
Adress:  0x5e349f644197443Fdd5089E4BCA8D152025653aA Balance:  2000000000000000000
Adress:  0xD509B8dBb87920420B3b8a275759932D148bCD09 Balance:  2000000000000000000
Adress:  0x16Eb0ae7287206d276dc5DE4eFb35DC6CE5f2B07 Balance:  2000000000000000000
Adress:  0x81d804A22da1AFD2866a886E50c3C34104B00085 Balance:  2000000000000000000
Adress:  0x6aBD6215912f8f9a5f4881eF07b1572Bd6dC481c Balance:  2000000000000000000
Adress:  0x617D13a416fD3eA4fA23417A246dFeE1937284c0 Balance:  2000000000000000000
Adress:  0x1ebB2a23b22dBE00224835785fD99dA469Cefb0f Balance:  2000000000000000000
Adress:  0xa74eFff607AfEff37BFc1EE70fF4beCB75F08964 Balance:  2000000000000000000
Adress:  0x5f16E8841125FC27d7FC3Bd1B4F2e47B71f63324 Balance:  2000000000000000000
Adress:  0xb7903Ff446D54A6832c0De4023fB349b63FE1e38 Balance:  2000000000000000000
Adress:  0xccDd1E316b2A571eab740fEA336ceF6Bbf64Bbe6 Balance:  2000000000000000000
Adress:  0xDc709BF63b5a46A777108a6ae8AE636AF9c93C5E Balance:  2000000000000000000
Adress:  0x79E2579264254C9153e7a6Df04f86072f16EaE07 Balance:  2000000000000000000
Result: lottery_no1: 1 lottery_no2: 0
[
  {
    adress: '0x9839a37eCE03fC83ae1d082603921dE9D7F570D3',
    random_number: '2555241321',
    ticket_no: '1'
  },
  {
    adress: '0x9839a37eCE03fC83ae1d082603921dE9D7F570D3',
    random_number: '1232273812',
    ticket_no: '2'
  },
  {
    adress: '0x9839a37eCE03fC83ae1d082603921dE9D7F570D3',
    random_number: '4199253404',
    ticket_no: '3'
  },
  {
    adress: '0xC60EE01248b6C6300202C86245E10dEDD0d1186b',
    random_number: '3020793698',
    ticket_no: '4'
  },
  {
    adress: '0xC60EE01248b6C6300202C86245E10dEDD0d1186b',
    random_number: '2948243252',
    ticket_no: '5'
  },
  {
    adress: '0xC60EE01248b6C6300202C86245E10dEDD0d1186b',
    random_number: '2795126960',
    ticket_no: '6'
  },
  {
    adress: '0x4075e8271CE7bd5291B7A2d450531348d67bA9B1',
    random_number: '3833952344',
    ticket_no: '7'
  },
  {
    adress: '0x4075e8271CE7bd5291B7A2d450531348d67bA9B1',
    random_number: '1349275969',
    ticket_no: '8'
  },
  {
    adress: '0x4075e8271CE7bd5291B7A2d450531348d67bA9B1',
    random_number: '785099626',
    ticket_no: '9'
  },
  {
    adress: '0x5E737dE726744521D7f4D47EDC3f5e47a5C5b782',
    random_number: '4011670199',
    ticket_no: '10'
  },
  {
    adress: '0x5E737dE726744521D7f4D47EDC3f5e47a5C5b782',
    random_number: '1714154508',
    ticket_no: '11'
  },
  {
    adress: '0x5E737dE726744521D7f4D47EDC3f5e47a5C5b782',
    random_number: '3201644004',
    ticket_no: '12'
  },
  {
    adress: '0xaf0Eaf5d4e1063B6178234512cc68012ad9310DB',
    random_number: '1984744380',
    ticket_no: '13'
  },
  {
    adress: '0xaf0Eaf5d4e1063B6178234512cc68012ad9310DB',
    random_number: '500952717',
    ticket_no: '14'
  },
  {
    adress: '0xaf0Eaf5d4e1063B6178234512cc68012ad9310DB',
    random_number: '3958060675',
    ticket_no: '15'
  },
  {
    adress: '0x69Db313B14c10e64275fdbeb328B34F306D28B79',
    random_number: '77866919',
    ticket_no: '16'
  },
  {
    adress: '0x69Db313B14c10e64275fdbeb328B34F306D28B79',
    random_number: '240323729',
    ticket_no: '17'
  },
  {
    adress: '0x69Db313B14c10e64275fdbeb328B34F306D28B79',
    random_number: '3810882675',
    ticket_no: '18'
  },
  {
    adress: '0xB35fE5E79619cCb21A1f362047C1fde5f71F0F66',
    random_number: '1089485565',
    ticket_no: '19'
  },
  {
    adress: '0xB35fE5E79619cCb21A1f362047C1fde5f71F0F66',
    random_number: '1496102068',
    ticket_no: '20'
  },
  {
    adress: '0xB35fE5E79619cCb21A1f362047C1fde5f71F0F66',
    random_number: '1751842730',
    ticket_no: '21'
  },
  {
    adress: '0x8177F08Cc8016d4a3a1A6A7FCb3E2972fC53fc05',
    random_number: '3103953535',
    ticket_no: '22'
  },
  {
    adress: '0x8177F08Cc8016d4a3a1A6A7FCb3E2972fC53fc05',
    random_number: '411715614',
    ticket_no: '23'
  },
  {
    adress: '0x8177F08Cc8016d4a3a1A6A7FCb3E2972fC53fc05',
    random_number: '1052993329',
    ticket_no: '24'
  },
  {
    adress: '0xE3d144A7F3D045f0Bd643a327C1b55689eBb1aB2',
    random_number: '3246352676',
    ticket_no: '25'
  },
  {
    adress: '0xE3d144A7F3D045f0Bd643a327C1b55689eBb1aB2',
    random_number: '3846639461',
    ticket_no: '26'
  },
  {
    adress: '0xE3d144A7F3D045f0Bd643a327C1b55689eBb1aB2',
    random_number: '162315200',
    ticket_no: '27'
  },
  {
    adress: '0xa2D19C5933dc0af5b9a95DA2E8bC333873b814DC',
    random_number: '1544660900',
    ticket_no: '28'
  },
  {
    adress: '0xa2D19C5933dc0af5b9a95DA2E8bC333873b814DC',
    random_number: '3993478009',
    ticket_no: '29'
  },
  {
    adress: '0xa2D19C5933dc0af5b9a95DA2E8bC333873b814DC',
    random_number: '2615972436',
    ticket_no: '30'
  },
  {
    adress: '0xc72E7Ab265eb55947883D69D376c3Ef739d012dA',
    random_number: '1756002368',
    ticket_no: '31'
  },
  {
    adress: '0xc72E7Ab265eb55947883D69D376c3Ef739d012dA',
    random_number: '1572719908',
    ticket_no: '32'
  },
  {
    adress: '0xc72E7Ab265eb55947883D69D376c3Ef739d012dA',
    random_number: '2735852312',
    ticket_no: '33'
  },
  {
    adress: '0xf4781cCc64C0c1Ce5e37945aFED7e8145C18E4eB',
    random_number: '1856389470',
    ticket_no: '34'
  },
  {
    adress: '0xf4781cCc64C0c1Ce5e37945aFED7e8145C18E4eB',
    random_number: '3890931923',
    ticket_no: '35'
  },
  {
    adress: '0xf4781cCc64C0c1Ce5e37945aFED7e8145C18E4eB',
    random_number: '3165338468',
    ticket_no: '36'
  },
  {
    adress: '0x7cF3c42dDdaD3FD6Db5C8700C8a84E6826240eCB',
    random_number: '1708454312',
    ticket_no: '37'
  },
  {
    adress: '0x7cF3c42dDdaD3FD6Db5C8700C8a84E6826240eCB',
    random_number: '1567057430',
    ticket_no: '38'
  },
  {
    adress: '0x7cF3c42dDdaD3FD6Db5C8700C8a84E6826240eCB',
    random_number: '1385607750',
    ticket_no: '39'
  },
  {
    adress: '0x08512fB21fF11A11537E5B5B75B2500d5B66A109',
    random_number: '2477907728',
    ticket_no: '40'
  },
  {
    adress: '0x08512fB21fF11A11537E5B5B75B2500d5B66A109',
    random_number: '323819459',
    ticket_no: '41'
  },
  {
    adress: '0x08512fB21fF11A11537E5B5B75B2500d5B66A109',
    random_number: '2872285634',
    ticket_no: '42'
  },
  {
    adress: '0xAD0E8FF428E8e2adeb620A014820238D2d6F7216',
    random_number: '445005897',
    ticket_no: '43'
  },
  {
    adress: '0xAD0E8FF428E8e2adeb620A014820238D2d6F7216',
    random_number: '4039903068',
    ticket_no: '44'
  },
  {
    adress: '0xAD0E8FF428E8e2adeb620A014820238D2d6F7216',
    random_number: '3852592651',
    ticket_no: '45'
  },
  {
    adress: '0xe8872720054884ca7d335DD763f3d8a759646B5e',
    random_number: '2942632008',
    ticket_no: '46'
  },
  {
    adress: '0xe8872720054884ca7d335DD763f3d8a759646B5e',
    random_number: '1414659428',
    ticket_no: '47'
  },
  {
    adress: '0xe8872720054884ca7d335DD763f3d8a759646B5e',
    random_number: '1204745813',
    ticket_no: '48'
  },
  {
    adress: '0xC0111aAdd5A13eb47816Ef7b4865D5767cA2826c',
    random_number: '3964542764',
    ticket_no: '49'
  },
  {
    adress: '0xC0111aAdd5A13eb47816Ef7b4865D5767cA2826c',
    random_number: '472806906',
    ticket_no: '50'
  },
  {
    adress: '0xC0111aAdd5A13eb47816Ef7b4865D5767cA2826c',
    random_number: '527755715',
    ticket_no: '51'
  },
  {
    adress: '0x73A33A5C39550E1BBD7D7201711d0Be0ce8714BD',
    random_number: '360256975',
    ticket_no: '52'
  },
  {
    adress: '0x73A33A5C39550E1BBD7D7201711d0Be0ce8714BD',
    random_number: '3655518968',
    ticket_no: '53'
  },
  {
    adress: '0x73A33A5C39550E1BBD7D7201711d0Be0ce8714BD',
    random_number: '3713453586',
    ticket_no: '54'
  },
  {
    adress: '0xd374f9F248B67471D777ca5BA3143f403A8984D9',
    random_number: '2994249662',
    ticket_no: '55'
  },
  {
    adress: '0xd374f9F248B67471D777ca5BA3143f403A8984D9',
    random_number: '1561112066',
    ticket_no: '56'
  },
  {
    adress: '0xd374f9F248B67471D777ca5BA3143f403A8984D9',
    random_number: '2667186576',
    ticket_no: '57'
  },
  {
    adress: '0x5BE88Fdd4C8b691CC5A32Fe1B3a7d70c25cfc608',
    random_number: '658387687',
    ticket_no: '58'
  },
  {
    adress: '0x5BE88Fdd4C8b691CC5A32Fe1B3a7d70c25cfc608',
    random_number: '2567620114',
    ticket_no: '59'
  },
  {
    adress: '0x5BE88Fdd4C8b691CC5A32Fe1B3a7d70c25cfc608',
    random_number: '1118528280',
    ticket_no: '60'
  },
  {
    adress: '0xAE7261c9d5d2B9f305e23114aE88D98De26b44d3',
    random_number: '3132857501',
    ticket_no: '61'
  },
  {
    adress: '0xAE7261c9d5d2B9f305e23114aE88D98De26b44d3',
    random_number: '946798997',
    ticket_no: '62'
  },
  {
    adress: '0xAE7261c9d5d2B9f305e23114aE88D98De26b44d3',
    random_number: '932516908',
    ticket_no: '63'
  },
  {
    adress: '0xF38916f867BF1E12930dcfD4315DD42fe714b938',
    random_number: '2488599443',
    ticket_no: '64'
  },
  {
    adress: '0xF38916f867BF1E12930dcfD4315DD42fe714b938',
    random_number: '4263038013',
    ticket_no: '65'
  },
  {
    adress: '0xF38916f867BF1E12930dcfD4315DD42fe714b938',
    random_number: '4071625212',
    ticket_no: '66'
  },
  {
    adress: '0x39b8aca1545C3907AA13C9B48BD3DeA25DEBfe5E',
    random_number: '164943904',
    ticket_no: '67'
  },
  {
    adress: '0x39b8aca1545C3907AA13C9B48BD3DeA25DEBfe5E',
    random_number: '715847444',
    ticket_no: '68'
  },
  {
    adress: '0x39b8aca1545C3907AA13C9B48BD3DeA25DEBf
e5E',
    random_number: '3194845752',
    ticket_no: '69'
  },
  {
    adress: '0xc42ef9522c2CB2Fd58a81BCe5D4eAeB3b4ED6493',
    random_number: '1227021069',
    ticket_no: '70'
  },
  {
    adress: '0xc42ef9522c2CB2Fd58a81BCe5D4eAeB3b4ED6493',
    random_number: '2320937923',
    ticket_no: '71'
  },
  {
    adress: '0xc42ef9522c2CB2Fd58a81BCe5D4eAeB3b4ED6493',
    random_number: '1929265502',
    ticket_no: '72'
  },
  {
    adress: '0x364C84500c98876B460AEEbE0eEFfDFE24EBFcA9',
    random_number: '2451735568',
    ticket_no: '73'
  },
  {
    adress: '0x364C84500c98876B460AEEbE0eEFfDFE24EBFcA9',
    random_number: '1633085957',
    ticket_no: '74'
  },
  {
    adress: '0x364C84500c98876B460AEEbE0eEFfDFE24EBFcA9',
    random_number: '495163849',
    ticket_no: '75'
  },
  {
    adress: '0xbBAE730D6dcf5F55B8BF62501cead85b29A39A64',
    random_number: '918879970',
    ticket_no: '76'
  },
  {
    adress: '0xbBAE730D6dcf5F55B8BF62501cead85b29A39A64',
    random_number: '3498976642',
    ticket_no: '77'
  },
  {
    adress: '0xbBAE730D6dcf5F55B8BF62501cead85b29A39A64',
    random_number: '1288863859',
    ticket_no: '78'
  },
  {
    adress: '0xAeB6F0a5A57EFe6083E23D8D78299426c70b7BCF',
    random_number: '619299976',
    ticket_no: '79'
  },
  {
    adress: '0xAeB6F0a5A57EFe6083E23D8D78299426c70b7BCF',
    random_number: '2471370673',
    ticket_no: '80'
  },
  {
    adress: '0xAeB6F0a5A57EFe6083E23D8D78299426c70b7BCF',
    random_number: '3961147257',
    ticket_no: '81'
  },
  {
    adress: '0xDB671C2228dbC6d5e591e747D42053585409bA3F',
    random_number: '2470856830',
    ticket_no: '82'
  },
  {
    adress: '0xDB671C2228dbC6d5e591e747D42053585409bA3F',
    random_number: '3622506769',
    ticket_no: '83'
  },
  {
    adress: '0xDB671C2228dbC6d5e591e747D42053585409bA3F',
    random_number: '3290858354',
    ticket_no: '84'
  },
  {
    adress: '0x31b069a63D5bb18685b20876aFd11dC90a21234E',
    random_number: '1406453710',
    ticket_no: '85'
  },
  {
    adress: '0x31b069a63D5bb18685b20876aFd11dC90a21234E',
    random_number: '2791218056',
    ticket_no: '86'
  },
  {
    adress: '0x31b069a63D5bb18685b20876aFd11dC90a21234E',
    random_number: '2748040630',
    ticket_no: '87'
  },
  {
    adress: '0xC57ab54B045A47AB15C2D726D7b8127e4612086e',
    random_number: '419139047',
    ticket_no: '88'
  },
  {
    adress: '0xC57ab54B045A47AB15C2D726D7b8127e4612086e',
    random_number: '3229760999',
    ticket_no: '89'
  },
  {
    adress: '0xC57ab54B045A47AB15C2D726D7b8127e4612086e',
    random_number: '509954826',
    ticket_no: '90'
  },
  {
    adress: '0x21dDDc104A80C01eaee5552E05229074AE6B253D',
    random_number: '2124437585',
    ticket_no: '91'
  },
  {
    adress: '0x21dDDc104A80C01eaee5552E05229074AE6B253D',
    random_number: '1381758601',
    ticket_no: '92'
  },
  {
    adress: '0x21dDDc104A80C01eaee5552E05229074AE6B253D',
    random_number: '2325773240',
    ticket_no: '93'
  },
  {
    adress: '0x36D1B77Cb8f50Ff0F3e35455512466d5d250fBf4',
    random_number: '568252888',
    ticket_no: '94'
  },
  {
    adress: '0x36D1B77Cb8f50Ff0F3e35455512466d5d250fBf4',
    random_number: '54029194',
    ticket_no: '95'
  },
  {
    adress: '0x36D1B77Cb8f50Ff0F3e35455512466d5d250fBf4',
    random_number: '1818769221',
    ticket_no: '96'
  },
  {
    adress: '0xA1275F2A6BFc1ddb2a8d72C2F1ad6Fb612760A00',
    random_number: '2155527236',
    ticket_no: '97'
  },
  {
    adress: '0xA1275F2A6BFc1ddb2a8d72C2F1ad6Fb612760A00',
    random_number: '1181706852',
    ticket_no: '98'
  },
  {
    adress: '0xA1275F2A6BFc1ddb2a8d72C2F1ad6Fb612760A00',
    random_number: '2202945707',
    ticket_no: '99'
  },
  {
    adress: '0x7D3DF09e6F5F966B5434c8EF59eBBC75C6BeA7D8',
    random_number: '531921369',
    ticket_no: '100'
  },
  ... 1400 more items
]
Account:  0x9839a37eCE03fC83ae1d082603921dE9D7F570D3 Lottery No:  1 Ticket No:  3 Status:  0
Account:  0x9839a37eCE03fC83ae1d082603921dE9D7F570D3 Lottery No:  1 Ticket No:  2 Status:  0
Account:  0xC60EE01248b6C6300202C86245E10dEDD0d1186b Lottery No:  1 Ticket No:  6 Status:  0
Account:  0xC60EE01248b6C6300202C86245E10dEDD0d1186b Lottery No:  1 Ticket No:  5 Status:  0
Account:  0x4075e8271CE7bd5291B7A2d450531348d67bA9B1 Lottery No:  1 Ticket No:  9 Status:  0
Account:  0x4075e8271CE7bd5291B7A2d450531348d67bA9B1 Lottery No:  1 Ticket No:  8 Status:  0
Account:  0x5E737dE726744521D7f4D47EDC3f5e47a5C5b782 Lottery No:  1 Ticket No:  12 Status:  0
Account:  0x5E737dE726744521D7f4D47EDC3f5e47a5C5b782 Lottery No:  1 Ticket No:  11 Status:  0
Account:  0xaf0Eaf5d4e1063B6178234512cc68012ad9310DB Lottery No:  1 Ticket No:  15 Status:  0
Account:  0xaf0Eaf5d4e1063B6178234512cc68012ad9310DB Lottery No:  1 Ticket No:  14 Status:  0
Account:  0x69Db313B14c10e64275fdbeb328B34F306D28B79 Lottery No:  1 Ticket No:  18 Status:  0
Account:  0x69Db313B14c10e64275fdbeb328B34F306D28B79 Lottery No:  1 Ticket No:  17 Status:  0
Account:  0xB35fE5E79619cCb21A1f362047C1fde5f71F0F66 Lottery No:  1 Ticket No:  21 Status:  0
Account:  0xB35fE5E79619cCb21A1f362047C1fde5f71F0F66 Lottery No:  1 Ticket No:  20 Status:  0
Account:  0x8177F08Cc8016d4a3a1A6A7FCb3E2972fC53fc05 Lottery No:  1 Ticket No:  24 Status:  0
Account:  0x8177F08Cc8016d4a3a1A6A7FCb3E2972fC53fc05 Lottery No:  1 Ticket No:  23 Status:  0
Account:  0xE3d144A7F3D045f0Bd643a327C1b55689eBb1aB2 Lottery No:  1 Ticket No:  27 Status:  0
Account:  0xE3d144A7F3D045f0Bd643a327C1b55689eBb1aB2 Lottery No:  1 Ticket No:  26 Status:  0
Account:  0xa2D19C5933dc0af5b9a95DA2E8bC333873b814DC Lottery No:  1 Ticket No:  30 Status:  0
Account:  0xa2D19C5933dc0af5b9a95DA2E8bC333873b814DC Lottery No:  1 Ticket No:  29 Status:  0
Account:  0xc72E7Ab265eb55947883D69D376c3Ef739d012dA Lottery No:  1 Ticket No:  33 Status:  0
Account:  0xc72E7Ab265eb55947883D69D376c3Ef739d012dA Lottery No:  1 Ticket No:  32 Status:  0
Account:  0xf4781cCc64C0c1Ce5e37945aFED7e8145C18E4eB Lottery No:  1 Ticket No:  36 Status:  0
Account:  0xf4781cCc64C0c1Ce5e37945aFED7e8145C18E4eB Lottery No:  1 Ticket No:  35 Status:  0
Account:  0x7cF3c42dDdaD3FD6Db5C8700C8a84E6826240eCB Lottery No:  1 Ticket No:  39 Status:  0
Account:  0x7cF3c42dDdaD3FD6Db5C8700C8a84E6826240eCB Lottery No:  1 Ticket No:  38 Status:  0
Account:  0x08512fB21fF11A11537E5B5B75B2500d5B66A109 Lottery No:  1 Ticket No:  42 Status:  0
Account:  0x08512fB21fF11A11537E5B5B75B2500d5B66A109 Lottery No:  1 Ticket No:  41 Status:  0
Account:  0xAD0E8FF428E8e2adeb620A014820238D2d6F7216 Lottery No:  1 Ticket No:  45 Status:  0
Account:  0xAD0E8FF428E8e2adeb620A014820238D2d6F7216 Lottery No:  1 Ticket No:  44 Status:  0
Account:  0xe8872720054884ca7d335DD763f3d8a759646B5e Lottery No:  1 Ticket No:  48 Status:  0
Account:  0xe8872720054884ca7d335DD763f3d8a759646B5e Lottery No:  1 Ticket No:  47 Status:  0
Account:  0xC0111aAdd5A13eb47816Ef7b4865D5767cA2826c Lottery No:  1 Ticket No:  51 Status:  0
Account:  0xC0111aAdd5A13eb47816Ef7b4865D5767cA2826c Lottery No:  1 Ticket No:  50 Status:  0
Account:  0x73A33A5C39550E1BBD7D7201711d0Be0ce8714BD Lottery No:  1 Ticket No:  54 Status:  0
Account:  0x73A33A5C39550E1BBD7D7201711d0Be0ce8714BD Lottery No:  1 Ticket No:  53 Status:  0
Account:  0xd374f9F248B67471D777ca5BA3143f403A8984D9 Lottery No:  1 Ticket No:  57 Status:  0
Account:  0xd374f9F248B67471D777ca5BA3143f403A8984D9 Lottery No:  1 Ticket No:  56 Status:  0
Account:  0x5BE88Fdd4C8b691CC5A32Fe1B3a7d70c25cfc608 Lottery No:  1 Ticket No:  60 Status:  0
Account:  0x5BE88Fdd4C8b691CC5A32Fe1B3a7d70c25cfc608 Lottery No:  1 Ticket No:  59 Status:  0
Account:  0xAE7261c9d5d2B9f305e23114aE88D98De26b44d3 Lottery No:  1 Ticket No:  63 Status:  0
Account:  0xAE7261c9d5d2B9f305e23114aE88D98De26b44d3 Lottery No:  1 Ticket No:  62 Status:  0
Account:  0xF38916f867BF1E12930dcfD4315DD42fe714b938 Lottery No:  1 Ticket No:  66 Status:  0
Account:  0xF38916f867BF1E12930dcfD4315DD42fe714b938 Lottery No:  1 Ticket No:  65 Status:  0
Account:  0x39b8aca1545C3907AA13C9B48BD3DeA25DEBfe5E Lottery No:  1 Ticket No:  69 Status:  0
Account:  0x39b8aca1545C3907AA13C9B48BD3DeA25DEBfe5E Lottery No:  1 Ticket No:  68 Status:  0
Account:  0xc42ef9522c2CB2Fd58a81BCe5D4eAeB3b4ED6493 Lottery No:  1 Ticket No:  72 Status:  0
Account:  0xc42ef9522c2CB2Fd58a81BCe5D4eAeB3b4ED6493 Lottery No:  1 Ticket No:  71 Status:  0
Account:  0x364C84500c98876B460AEEbE0eEFfDFE24EBFcA9 Lottery No:  1 Ticket No:  75 Status:  0
Account:  0x364C84500c98876B460AEEbE0eEFfDFE24EBFcA9 Lottery No:  1 Ticket No:  74 Status:  0
Account:  0xbBAE730D6dcf5F55B8BF62501cead85b29A39A64 Lottery No:  1 Ticket No:  78 Status:  0
Account:  0xbBAE730D6dcf5F55B8BF62501cead85b29A39A64 Lottery No:  1 Ticket No:  77 Status:  0
Account:  0xAeB6F0a5A57EFe6083E23D8D78299426c70b7BCF Lottery No:  1 Ticket No:  81 Status:  0
Account:  0xAeB6F0a5A57EFe6083E23D8D78299426c70b7BCF Lottery No:  1 Ticket No:  80 Status:  0
Account:  0xDB671C2228dbC6d5e591e747D42053585409bA3F Lottery No:  1 Ticket No:  84 Status:  0
Account:  0xDB671C2228dbC6d5e591e747D42053585409bA3F Lottery No:  1 Ticket No:  83 Status:  0
Account:  0x31b069a63D5bb18685b20876aFd11dC90a21234E Lottery No:  1 Ticket No:  87 Status:  0
Account:  0x31b069a63D5bb18685b20876aFd11dC90a21234E Lottery No:  1 Ticket No:  86 Status:  0
Account:  0xC57ab54B045A47AB15C2D726D7b8127e4612086e Lottery No:  1 Ticket No:  90 Status:  0
Account:  0xC57ab54B045A47AB15C2D726D7b8127e4612086e Lottery No:  1 Ticket No:  89 Status:  0
Account:  0x21dDDc104A80C01eaee5552E05229074AE6B253D Lottery No:  1 Ticket No:  93 Status:  0
Account:  0x21dDDc104A80C01eaee5552E05229074AE6B253D Lottery No:  1 Ticket No:  92 Status:  0
Account:  0x36D1B77Cb8f50Ff0F3e35455512466d5d250fBf4 Lottery No:  1 Ticket No:  96 Status:  0
Account:  0x36D1B77Cb8f50Ff0F3e35455512466d5d250fBf4 Lottery No:  1 Ticket No:  95 Status:  0
Account:  0xA1275F2A6BFc1ddb2a8d72C2F1ad6Fb612760A00 Lottery No:  1 Ticket No:  99 Status:  0
Account:  0xA1275F2A6BFc1ddb2a8d72C2F1ad6Fb612760A00 Lottery No:  1 Ticket No:  98 Status:  0
Account:  0x7D3DF09e6F5F966B5434c8EF59eBBC75C6BeA7D8 Lottery No:  1 Ticket No:  102 Status:  0
Account:  0x7D3DF09e6F5F966B5434c8EF59eBBC75C6BeA7D8 Lottery No:  1 Ticket No:  101 Status:  0
Account:  0xAB7629b352751b54f19A66331e455a912641507F Lottery No:  1 Ticket No:  105 Status:  0
Account:  0xAB7629b352751b54f19A66331e455a912641507F Lottery No:  1 Ticket No:  104 Status:  0
Account:  0xD307362a1Ae1972DA864AB194e4699403002bA22 Lottery No:  1 Ticket No:  108 Status:  0
Account:  0xD307362a1Ae1972DA864AB194e4699403002bA22 Lottery No:  1 Ticket No:  107 Status:  0
Account:  0x98877620400f6D11D60B709279286049e90e4208 Lottery No:  1 Ticket No:  111 Status:  0
Account:  0x98877620400f6D11D60B709279286049e90e4208 Lottery No:  1 Ticket No:  110 Status:  0
Account:  0x27f9e0807dd03b5cc06328e9d406f23d7d08344f Lottery No:  1 Ticket No:  114 Status:  0
Account:  0x27f9e0807dd03b5cc06328e9d406f23d7d08344f Lottery No:  1 Ticket No:  113 Status:  0
Account:  0xD154Fb7a75daCf0e04EB9a3c5b35EC3d47C878E4 Lottery No:  1 Ticket No:  117 Status:  0
Account:  0xD154Fb7a75daCf0e04EB9a3c5b35EC3d47C878E4 Lottery No:  1 Ticket No:  116 Status:  0
Account:  0x5daB0aCaF1FDbeCD0C46DA179b35DD8871425B96 Lottery No:  1 Ticket No:  120 Status:  0
Account:  0x5daB0aCaF1FDbeCD0C46DA179b35DD8871425B96 Lottery No:  1 Ticket No:  119 Status:  0
Account:  0xE68EF299a0e47f7667E7b83D97DAe938f1182A9b Lottery No:  1 Ticket No:  123 Status:  0
Account:  0xE68EF299a0e47f7667E7b83D97DAe938f1182A9b Lottery No:  1 Ticket No:  122 Status:  0
Account:  0x8C228210BB296A409595eD238C7eC8b469DF2ECA Lottery No:  1 Ticket No:  126 Status:  0
Account:  0x8C228210BB296A409595eD238C7eC8b469DF2ECA Lottery No:  1 Ticket No:  125 Status:  0
Account:  0x86e7ba7e48d93669388c09C62d358Bc33386fD0B Lottery No:  1 Ticket No:  129 Status:  0
Account:  0x86e7ba7e48d93669388c09C62d358Bc33386fD0B Lottery No:  1 Ticket No:  128 Status:  0
Account:  0xF3bdC1f6377003fB5C90826fD36b9821C3067F79 Lottery No:  1 Ticket No:  132 Status:  0
Account:  0xF3bdC1f6377003fB5C90826fD36b9821C3067F79 Lottery No:  1 Ticket No:  131 Status:  0
Account:  0x1530Fe9F08365e33d7a63214287AFA861c9BaA00 Lottery No:  1 Ticket No:  135 Status:  0
Account:  0x1530Fe9F08365e33d7a63214287AFA861c9BaA00 Lottery No:  1 Ticket No:  134 Status:  0
Account:  0xfB74Fb910b78840Da699C06Bc769745309D04781 Lottery No:  1 Ticket No:  138 Status:  0
Account:  0xfB74Fb910b78840Da699C06Bc769745309D04781 Lottery No:  1 Ticket No:  137 Status:  0
Account:  0x09b45454bb5c63Acd7A324b037e978b1803A8A1B Lottery No:  1 Ticket No:  141 Status:  0
Account:  0x09b45454bb5c63Acd7A324b037e978b1803A8A1B Lottery No:  1 Ticket No:  140 Status:  0
Account:  0xd9dfA87a59D9CA7b319f7b5AFc553B663Aafa40D Lottery No:  1 Ticket No:  144 Status:  0
Account:  0xd9dfA87a59D9CA7b319f7b5AFc553B663Aafa40D Lottery No:  1 Ticket No:  143 Status:  0
Account:  0xacCCeF280F5ca425b5354A100e57Fa2DBc979348 Lottery No:  1 Ticket No:  147 Status:  0
Account:  0xacCCeF280F5ca425b5354A100e57Fa2DBc979348 Lottery No:  1 Ticket No:  146 Status:  0
Account:  0x80C29BEfF78587f31Df4e09ca00C3216F6992A70 Lottery No:  1 Ticket No:  150 Status:  0
Account:  0x80C29BEfF78587f31Df4e09ca00C3216F6992A70 Lottery No:  1 Ticket No:  149 Status:  0
Account:  0x5e55828640aa36AeE35Afa6edC4Fa48b8De57b42 Lottery No:  1 Ticket No:  153 Status:  0
Account:  0x5e55828640aa36AeE35Afa6edC4Fa48b8De57b42 Lottery No:  1 Ticket No:  152 Status:  0
Account:  0x64742D8AAa49e7004ee99DdD5ca2C93aC903775f Lottery No:  1 Ticket No:  156 Status:  0
Account:  0x64742D8AAa49e7004ee99DdD5ca2C93aC903775f Lottery No:  1 Ticket No:  155 Status:  0
Account:  0xF2B02717273089790187e30d014056C6170eF045 Lottery No:  1 Ticket No:  159 Status:  0
Account:  0xF2B02717273089790187e30d014056C6170eF045 Lottery No:  1 Ticket No:  158 Status:  0
Account:  0xC1E9bf0e70062a1a5B6C977cb00149fa2dA72Fa6 Lottery No:  1 Ticket No:  162 Status:  0
Account:  0xC1E9bf0e70062a1a5B6C977cb00149fa2dA72Fa6 Lottery No:  1 Ticket No:  161 Status:  0
Account:  0xf528fbE124999203b8779233F296bB053F04f05D Lottery No:  1 Ticket No:  165 Status:  0
Account:  0xf528fbE124999203b8779233F296bB053F04f05D Lottery No:  1 Ticket No:  164 Status:  0
Account:  0x3E4ceD79d5278F22fE6889655BCE2b3a2d8A54Aa Lottery No:  1 Ticket No:  168 Status:  0
Account:  0x3E4ceD79d5278F22fE6889655BCE2b3a2d8A54Aa Lottery No:  1 Ticket No:  167 Status:  0
Account:  0x112bF1ad630498880dD54E29bEB16D67c73b2799 Lottery No:  1 Ticket No:  171 Status:  0
Account:  0x112bF1ad630498880dD54E29bEB16D67c73b2799 Lottery No:  1 Ticket No:  170 Status:  0
Account:  0x45937A40f88632a706fb3c3dda16d31ac180F224 Lottery No:  1 Ticket No:  174 Status:  0
Account:  0x45937A40f88632a706fb3c3dda16d31ac180F224 Lottery No:  1 Ticket No:  173 Status:  0
Account:  0x10aFfC53B6377DEaC94aF22188aA30aeeab983A8 Lottery No:  1 Ticket No:  177 Status:  0
Account:  0x10aFfC53B6377DEaC94aF22188aA30aeeab983A8 Lottery No:  1 Ticket No:  176 Status:  0
Account:  0x707B84D77f4503AB5c2bAd8C60e7C5Bc71D763c6 Lottery No:  1 Ticket No:  180 Status:  0
Account:  0x707B84D77f4503AB5c2bAd8C60e7C5Bc71D763c6 Lottery No:  1 Ticket No:  179 Status:  0
Account:  0x4827641876d9b08633B8506897F7B861392c821e Lottery No:  1 Ticket No:  183 Status:  0
Account:  0x4827641876d9b08633B8506897F7B861392c821e Lottery No:  1 Ticket No:  182 Status:  0
Account:  0xb5360908cA9B130B450A7b9d8E830F320De3eb8D Lottery No:  1 Ticket No:  186 Status:  0
Account:  0xb5360908cA9B130B450A7b9d8E830F320De3eb8D Lottery No:  1 Ticket No:  185 Status:  0
Account:  0xa4300d6a79fEcB03398e8979Ce586Ec2B2F06b7d Lottery No:  1 Ticket No:  189 Status:  0
Account:  0xa4300d6a79fEcB03398e8979Ce586Ec2B2F06b7d Lottery No:  1 Ticket No:  188 Status:  0
Account:  0xD9fa35fb7B107Aaf6bCb25Df5718B746744f7032 Lottery No:  1 Ticket No:  192 Status:  0
Account:  0xD9fa35fb7B107Aaf6bCb25Df5718B746744f7032 Lottery No:  1 Ticket No:  191 Status:  0
Account:  0x02B1cDAA9A1451815f966fAd90a1651d3de8050c Lottery No:  1 Ticket No:  195 Status:  0
Account:  0x02B1cDAA9A1451815f966fAd90a1651d3de8050c Lottery No:  1 Ticket No:  194 Status:  0
Account:  0xc84048B7D978A146bAf6f88f7F25930ba9B47Bd6 Lottery No:  1 Ticket No:  198 Status:  0
Account:  0xc84048B7D978A146bAf6f88f7F25930ba9B47Bd6 Lottery No:  1 Ticket No:  197 Status:  0
Account:  0x7D12E8ac7C41cE9379db7D2C54470898c5972002 Lottery No:  1 Ticket No:  201 Status:  0
Account:  0x7D12E8ac7C41cE9379db7D2C54470898c5972002 Lottery No:  1 Ticket No:  200 Status:  0
Account:  0x9577B39EA672c749c49E7d469Db6fAA758306bDF Lottery No:  1 Ticket No:  204 Status:  0
Account:  0x9577B39EA672c749c49E7d469Db6fAA758306bDF Lottery No:  1 Ticket No:  203 Status:  0
Account:  0xd6b054D134CBe4eA5AF1bEd27a1061E1F07D6290 Lottery No:  1 Ticket No:  207 Status:  0
Account:  0xd6b054D134CBe4eA5AF1bEd27a1061E1F07D6290 Lottery No:  1 Ticket No:  206 Status:  0
Account:  0x6A84405da46E9A3F152181C1bbf4b6Aa8229f997 Lottery No:  1 Ticket No:  210 Status:  0
Account:  0x6A84405da46E9A3F152181C1bbf4b6Aa8229f997 Lottery No:  1 Ticket No:  209 Status:  0
Account:  0x0eA9c2535E4E42a1F40c84148638E89C98Aa1EFb Lottery No:  1 Ticket No:  213 Status:  0
Account:  0x0eA9c2535E4E42a1F40c84148638E89C98Aa1EFb Lottery No:  1 Ticket No:  212 Status:  0
Account:  0x2794FDb0675b11515A6BB3f98F5788221E004427 Lottery No:  1 Ticket No:  216 Status:  0
Account:  0x2794FDb0675b11515A6BB3f98F5788221E004427 Lottery No:  1 Ticket No:  215 Status:  0
Account:  0x127Ab8DD41bc2a116a7962d08D6a38bCdb2EaEC0 Lottery No:  1 Ticket No:  219 Status:  0
Account:  0x127Ab8DD41bc2a116a7962d08D6a38bCdb2EaEC0 Lottery No:  1 Ticket No:  218 Status:  0
Account:  0xEB8cec89e38cE97d3cED5b2d8F1A8CfA1f09CbDE Lottery No:  1 Ticket No:  222 Status:  0
Account:  0xEB8cec89e38cE97d3cED5b2d8F1A8CfA1f09CbDE Lottery No:  1 Ticket No:  221 Status:  0
Account:  0xF65C8b0570dA7ba4f78dA7109731b141cfEAA519 Lottery No:  1 Ticket No:  225 Status:  0
Account:  0xF65C8b0570dA7ba4f78dA7109731b141cfEAA519 Lottery No:  1 Ticket No:  224 Status:  0
Account:  0x4db06a71A4C7deEfeed42Ea55e8979C58CfBab4F Lottery No:  1 Ticket No:  228 Status:  0
Account:  0x4db06a71A4C7deEfeed42Ea55e8979C58CfBab4F Lottery No:  1 Ticket No:  227 Status:  0
Account:  0x3893704f32E8758ea975f54965d91068b8C9A228 Lottery No:  1 Ticket No:  231 Status:  0
Account:  0x3893704f32E8758ea975f54965d91068b8C9A228 Lottery No:  1 Ticket No:  230 Status:  0
Account:  0x2B42ecbFe06f022F1ceA30381633205346314810 Lottery No:  1 Ticket No:  234 Status:  0
Account:  0x2B42ecbFe06f022F1ceA30381633205346314810 Lottery No:  1 Ticket No:  233 Status:  0
Account:  0x3af2373788b3c6fAE21888f36Aa87dEaa0517C4c Lottery No:  1 Ticket No:  237 Status:  0
Account:  0x3af2373788b3c6fAE21888f36Aa87dEaa0517C4c Lottery No:  1 Ticket No:  236 Status:  0
Account:  0x0F03bE01a8Cf88581Fa3D845f9128b37f6c4852C Lottery No:  1 Ticket No:  240 Status:  0
Account:  0x0F03bE01a8Cf88581Fa3D845f9128b37f6c4852C Lottery No:  1 Ticket No:  239 Status:  0
Account:  0xADe9ACEcA244f2d81d46942f1A5075ffdAFD0C98 Lottery No:  1 Ticket No:  243 Status:  0
Account:  0xADe9ACEcA244f2d81d46942f1A5075ffdAFD0C98 Lottery No:  1 Ticket No:  242 Status:  0
Account:  0xC290b11AEF155B004945A5b4cfCD703382907685 Lottery No:  1 Ticket No:  246 Status:  0
Account:  0xC290b11AEF155B004945A5b4cfCD703382907685 Lottery No:  1 Ticket No:  245 Status:  0
Account:  0xaEA033cfb7c78F2bF552c0af1E44d8f85e319D78 Lottery No:  1 Ticket No:  249 Status:  0
Account:  0xaEA033cfb7c78F2bF552c0af1E44d8f85e319D78 Lottery No:  1 Ticket No:  248 Status:  0
Account:  0xBB062745E29F2f3d6702a57fC5ceAA278A361935 Lottery No:  1 Ticket No:  252 Status:  0
Account:  0xBB062745E29F2f3d6702a57fC5ceAA278A361935 Lottery No:  1 Ticket No:  251 Status:  0
Account:  0xa9f9A87A8Fcb4bC7013c56E5B22d55f0d8966523 Lottery No:  1 Ticket No:  255 Status:  0
Account:  0xa9f9A87A8Fcb4bC7013c56E5B22d55f0d8966523 Lottery No:  1 Ticket No:  254 Status:  0
Account:  0x25d88F636fC9b6f9Af4e929055E89CA72E98d32a Lottery No:  1 Ticket No:  258 Status:  0
Account:  0x25d88F636fC9b6f9Af4e929055E89CA72E98d32a Lottery No:  1 Ticket No:  257 Status:  0
Account:  0x0019bd957b782827BE9e464B4053a8D83d05Ce7f Lottery No:  1 Ticket No:  261 Status:  0
Account:  0x0019bd957b782827BE9e464B4053a8D83d05Ce7f Lottery No:  1 Ticket No:  260 Status:  0
Account:  0xf75427ec39352f33BE6fa6fb23a0b4360794B745 Lottery No:  1 Ticket No:  264 Status:  0
Account:  0xf75427ec39352f33BE6fa6fb23a0b4360794B745 Lottery No:  1 Ticket No:  263 Status:  0
Account:  0x598e1d0a4d71D57080f6BB8519DF1e121a87F42d Lottery No:  1 Ticket No:  267 Status:  0
Account:  0x598e1d0a4d71D57080f6BB8519DF1e121a87F42d Lottery No:  1 Ticket No:  266 Status:  0
Account:  0x77D12e88911E772890E311c1C5584ab5B5452bad Lottery No:  1 Ticket No:  270 Status:  0
Account:  0x77D12e88911E772890E311c1C5584ab5B5452bad Lottery No:  1 Ticket No:  269 Status:  0
Account:  0xF35E5Fd59f98fB997B8A16a518e61F448b4541F1 Lottery No:  1 Ticket No:  273 Status:  0
Account:  0xF35E5Fd59f98fB997B8A16a518e61F448b4541F1 Lottery No:  1 Ticket No:  272 Status:  0
Account:  0xb5E01E799781294C1E110ca763151EdC0EBf5296 Lottery No:  1 Ticket No:  276 Status:  0
Account:  0xb5E01E799781294C1E110ca763151EdC0EBf5296 Lottery No:  1 Ticket No:  275 Status:  0
Account:  0xf69e8F163F5668CF546f55BF58C2675a8845A56D Lottery No:  1 Ticket No:  279 Status:  0
Account:  0xf69e8F163F5668CF546f55BF58C2675a8845A56D Lottery No:  1 Ticket No:  278 Status:  0
Account:  0x85B4866EBA650549162B952d78fFd8CE2F821D41 Lottery No:  1 Ticket No:  282 Status:  0
Account:  0x85B4866EBA650549162B952d78fFd8CE2F821D41 Lottery No:  1 Ticket No:  281 Status:  0
Account:  0x9b756f46E48C8E514749a2783d89B0eF076523D4 Lottery No:  1 Ticket No:  285 Status:  0
Account:  0x9b756f46E48C8E514749a2783d89B0eF076523D4 Lottery No:  1 Ticket No:  284 Status:  0
Account:  0xEdA3D9F5bf6282A313e5Ac3b3b703C61339a9ecf Lottery No:  1 Ticket No:  288 Status:  0
Account:  0xEdA3D9F5bf6282A313e5Ac3b3b703C61339a9ecf Lottery No:  1 Ticket No:  287 Status:  0
Account:  0x9eA3a02B254f6c160817f0156158eaef9B068379 Lottery No:  1 Ticket No:  291 Status:  0
Account:  0x9eA3a02B254f6c160817f0156158eaef9B068379 Lottery No:  1 Ticket No:  290 Status:  0
Account:  0x4cB6419ba34f844c2BC1c4341D6dd6E3c726D0e5 Lottery No:  1 Ticket No:  294 Status:  0
Account:  0x4cB6419ba34f844c2BC1c4341D6dd6E3c726D0e5 Lottery No:  1 Ticket No:  293 Status:  0
Account:  0x4A2727F40e7F26e6498a7a600d6734d884Bed252 Lottery No:  1 Ticket No:  297 Status:  0
Account:  0x4A2727F40e7F26e6498a7a600d6734d884Bed252 Lottery No:  1 Ticket No:  296 Status:  0
Account:  0x502617f91f77Be0616D227726c083f41Daf3B9d4 Lottery No:  1 Ticket No:  300 Status:  0
Account:  0x502617f91f77Be0616D227726c083f41Daf3B9d4 Lottery No:  1 Ticket No:  299 Status:  0
Account:  0x70aA6653Fa26f4fa0F6f6B15B7Af88F25CA01d02 Lottery No:  1 Ticket No:  303 Status:  0
Account:  0x70aA6653Fa26f4fa0F6f6B15B7Af88F25CA01d02 Lottery No:  1 Ticket No:  302 Status:  0
Account:  0x0F1aA05449b910cC7B7B032C6b19b98F18a8Ab91 Lottery No:  1 Ticket No:  306 Status:  0
Account:  0x0F1aA05449b910cC7B7B032C6b19b98F18a8Ab91 Lottery No:  1 Ticket No:  305 Status:  0
Account:  0x94E87478C955Aa7cDA14c40d2A09E8F2F62a8b7C Lottery No:  1 Ticket No:  309 Status:  0
Account:  0x94E87478C955Aa7cDA14c40d2A09E8F2F62a8b7C Lottery No:  1 Ticket No:  308 Status:  0
Account:  0xeD983A3710413A439739DC58178C1102b168857F Lottery No:  1 Ticket No:  312 Status:  0
Account:  0xeD983A3710413A439739DC58178C1102b168857F Lottery No:  1 Ticket No:  311 Status:  0
Account:  0x7653E5067310a4eDb2Ed0aEa81d71896CC24Ae09 Lottery No:  1 Ticket No:  315 Status:  0
Account:  0x7653E5067310a4eDb2Ed0aEa81d71896CC24Ae09 Lottery No:  1 Ticket No:  314 Status:  0
Account:  0x887d3bE615Bcab046F2B8A4767a85826717F6cA3 Lottery No:  1 Ticket No:  318 Status:  0
Account:  0x887d3bE615Bcab046F2B8A4767a85826717F6cA3 Lottery No:  1 Ticket No:  317 Status:  0
Account:  0x82c46F6dC5b41A599979A9aadAd3B8E10C9cAcf8 Lottery No:  1 Ticket No:  321 Status:  0
Account:  0x82c46F6dC5b41A599979A9aadAd3B8E10C9cAcf8 Lottery No:  1 Ticket No:  320 Status:  0
Account:  0x57F65AB280a15717BD45Ab56b301a9f14f5b58ff Lottery No:  1 Ticket No:  324 Status:  0
Account:  0x57F65AB280a15717BD45Ab56b301a9f14f5b58ff Lottery No:  1 Ticket No:  323 Status:  0
Account:  0x8fb3C89C9BfDDE3394FEA57cE82D461c6ca2BB54 Lottery No:  1 Ticket No:  327 Status:  0
Account:  0x8fb3C89C9BfDDE3394FEA57cE82D461c6ca2BB54 Lottery No:  1 Ticket No:  326 Status:  0
Account:  0x62d9812A75F320E0a7B1079984Bb77D04dDde1CC Lottery No:  1 Ticket No:  330 Status:  0
Account:  0x62d9812A75F320E0a7B1079984Bb77D04dDde1CC Lottery No:  1 Ticket No:  329 Status:  0
Account:  0xAbb923ff1F885BaF7a407d06acA9aE9dBb3d8D4C Lottery No:  1 Ticket No:  333 Status:  0
Account:  0xAbb923ff1F885BaF7a407d06acA9aE9dBb3d8D4C Lottery No:  1 Ticket No:  332 Status:  0
Account:  0x42aAE3E4964D9987AB6227D21096D5f2cb356635 Lottery No:  1 Ticket No:  336 Status:  0
Account:  0x42aAE3E4964D9987AB6227D21096D5f2cb356635 Lottery No:  1 Ticket No:  335 Status:  0
Account:  0x81e38b08ef2185bE7f38bEc4359443Ec4f246dB0 Lottery No:  1 Ticket No:  339 Status:  0
Account:  0x81e38b08ef2185bE7f38bEc4359443Ec4f246dB0 Lottery No:  1 Ticket No:  338 Status:  0
Account:  0xf2bBb2CA6A354437Db7f1f1f890Ed2c2B3c539A6 Lottery No:  1 Ticket No:  342 Status:  0
Account:  0xf2bBb2CA6A354437Db7f1f1f890Ed2c2B3c539A6 Lottery No:  1 Ticket No:  341 Status:  0
Account:  0x9c757A224f277E75Ad325CDB6bB606E7641C1814 Lottery No:  1 Ticket No:  345 Status:  0
Account:  0x9c757A224f277E75Ad325CDB6bB606E7641C1814 Lottery No:  1 Ticket No:  344 Status:  0
Account:  0xF1fFF2556bAC724E8aADe7F62c122045DB8518F2 Lottery No:  1 Ticket No:  348 Status:  0
Account:  0xF1fFF2556bAC724E8aADe7F62c122045DB8518F2 Lottery No:  1 Ticket No:  347 Status:  0
Account:  0x7Cf1aF38DFb389Fca0B550BE8BE5cA4a6002587a Lottery No:  1 Ticket No:  351 Status:  0
Account:  0x7Cf1aF38DFb389Fca0B550BE8BE5cA4a6002587a Lottery No:  1 Ticket No:  350 Status:  0
Account:  0xB85BBD1f36691E93D3986359688CBF9c92f8D5C4 Lottery No:  1 Ticket No:  354 Status:  0
Account:  0xB85BBD1f36691E93D3986359688CBF9c92f8D5C4 Lottery No:  1 Ticket No:  353 Status:  0
Account:  0x670207E2274bD79b72Ce7327B907e32A2beEb744 Lottery No:  1 Ticket No:  357 Status:  0
Account:  0x670207E2274bD79b72Ce7327B907e32A2beEb744 Lottery No:  1 Ticket No:  356 Status:  0
Account:  0xed9D991F8DD57561338E051Aa69C1B42Da0b65Bd Lottery No:  1 Ticket No:  360 Status:  0
Account:  0xed9D991F8DD57561338E051Aa69C1B42Da0b65Bd Lottery No:  1 Ticket No:  359 Status:  0
Account:  0xF957DA70500Cc78288Ae66E6Cc0F01A655f73c04 Lottery No:  1 Ticket No:  363 Status:  0
Account:  0xF957DA70500Cc78288Ae66E6Cc0F01A655f73c04 Lottery No:  1 Ticket No:  362 Status:  0
Account:  0xcFf410D2f29cf1bEA5d55895bBBFf5D639d0634C Lottery No:  1 Ticket No:  366 Status:  0
Account:  0xcFf410D2f29cf1bEA5d55895bBBFf5D639d0634C Lottery No:  1 Ticket No:  365 Status:  0
Account:  0x3d31403F6AB4e6dcd1Fa3277E27F13501Fca0a70 Lottery No:  1 Ticket No:  369 Status:  0
Account:  0x3d31403F6AB4e6dcd1Fa3277E27F13501Fca0a70 Lottery No:  1 Ticket No:  368 Status:  0
Account:  0x003Ce5Eeb4b12DaBE50A2b7B43CbF8D202366F7C Lottery No:  1 Ticket No:  372 Status:  0
Account:  0x003Ce5Eeb4b12DaBE50A2b7B43CbF8D202366F7C Lottery No:  1 Ticket No:  371 Status:  0
Account:  0x70A142b9809Fd15348bAa76864Dbd0BD9BbB8F70 Lottery No:  1 Ticket No:  375 Status:  0
Account:  0x70A142b9809Fd15348bAa76864Dbd0BD9BbB8F70 Lottery No:  1 Ticket No:  374 Status:  0
Account:  0xAD5653c8C32d0a46d4Ecf7c2377E032794Fd59BD Lottery No:  1 Ticket No:  378 Status:  0
Account:  0xAD5653c8C32d0a46d4Ecf7c2377E032794Fd59BD Lottery No:  1 Ticket No:  377 Status:  0
Account:  0xc375C6C57F4Ff1F733eE56c5F5567bdcbBc98F07 Lottery No:  1 Ticket No:  381 Status:  0
Account:  0xc375C6C57F4Ff1F733eE56c5F5567bdcbBc98F07 Lottery No:  1 Ticket No:  380 Status:  0
Account:  0x6d066FDBDcB638a510583B1537F929F554889859 Lottery No:  1 Ticket No:  384 Status:  0
Account:  0x6d066FDBDcB638a510583B1537F929F554889859 Lottery No:  1 Ticket No:  383 Status:  0
Account:  0x46133140aD717A195F27263aC3f3C04f5e8f05C4 Lottery No:  1 Ticket No:  387 Status:  0
Account:  0x46133140aD717A195F27263aC3f3C04f5e8f05C4 Lottery No:  1 Ticket No:  386 Status:  0
Account:  0xcef1c42Ba9E3D1d27dCff0461Ba6Ff30182C7F1E Lottery No:  1 Ticket No:  390 Status:  0
Account:  0xcef1c42Ba9E3D1d27dCff0461Ba6Ff30182C7F1E Lottery No:  1 Ticket No:  389 Status:  0
Account:  0x791A826B215cec4d774865D2c9230a3f7982d7b9 Lottery No:  1 Ticket No:  393 Status:  0
Account:  0x791A826B215cec4d774865D2c9230a3f7982d7b9 Lottery No:  1 Ticket No:  392 Status:  0
Account:  0xcEFF8a762817D1531D1C025d3b93267a89356Ee6 Lottery No:  1 Ticket No:  396 Status:  0
Account:  0xcEFF8a762817D1531D1C025d3b93267a89356Ee6 Lottery No:  1 Ticket No:  395 Status:  0
Account:  0xb65Ed3F62a31C27d0a5C917169A610Cf0c6D1c8B Lottery No:  1 Ticket No:  399 Status:  0
Account:  0xb65Ed3F62a31C27d0a5C917169A610Cf0c6D1c8B Lottery No:  1 Ticket No:  398 Status:  0
Account:  0xC47204AAB9DAa96E33C39DEc9BC13C9500119590 Lottery No:  1 Ticket No:  402 Status:  0
Account:  0xC47204AAB9DAa96E33C39DEc9BC13C9500119590 Lottery No:  1 Ticket No:  401 Status:  0
Account:  0x4BfbCaE0A5A63D0af5b4ec9687aD4364D9f33730 Lottery No:  1 Ticket No:  405 Status:  0
Account:  0x4BfbCaE0A5A63D0af5b4ec9687aD4364D9f33730 Lottery No:  1 Ticket No:  404 Status:  0
Account:  0xD22bb6481D667D59096b4B98c53fE44c1DB3E79b Lottery No:  1 Ticket No:  408 Status:  0
Account:  0xD22bb6481D667D59096b4B98c53fE44c1DB3E79b Lottery No:  1 Ticket No:  407 Status:  0
Account:  0xee8db84E11D284781259e7DECfd9C58595ae2657 Lottery No:  1 Ticket No:  411 Status:  0
Account:  0xee8db84E11D284781259e7DECfd9C58595ae2657 Lottery No:  1 Ticket No:  410 Status:  0
Account:  0x2202AECaD8d0948fD9777A20A0A1735e4e309e47 Lottery No:  1 Ticket No:  414 Status:  0
Account:  0x2202AECaD8d0948fD9777A20A0A1735e4e309e47 Lottery No:  1 Ticket No:  413 Status:  0
Account:  0x62d9F736d33C5643bF5429242BD358A797405D96 Lottery No:  1 Ticket No:  417 Status:  0
Account:  0x62d9F736d33C5643bF5429242BD358A797405D96 Lottery No:  1 Ticket No:  416 Status:  0
Account:  0x276A04C02728Fd581aaCddC58cb81Af6A21942F0 Lottery No:  1 Ticket No:  420 Status:  0
Account:  0x276A04C02728Fd581aaCddC58cb81Af6A21942F0 Lottery No:  1 Ticket No:  419 Status:  0
Account:  0x2b2D055f0370b9B6c172EE5D1980b451294D39bE Lottery No:  1 Ticket No:  423 Status:  0
Account:  0x2b2D055f0370b9B6c172EE5D1980b451294D39bE Lottery No:  1 Ticket No:  422 Status:  0
Account:  0x18d78Ad84A4fe3306C0d04c8E109BD900d6b91e4 Lottery No:  1 Ticket No:  426 Status:  0
Account:  0x18d78Ad84A4fe3306C0d04c8E109BD900d6b91e4 Lottery No:  1 Ticket No:  425 Status:  0
Account:  0xF35cfB8cEc6B7F8DeEB938e6007bc1a62f6a84a9 Lottery No:  1 Ticket No:  429 Status:  0
Account:  0xF35cfB8cEc6B7F8DeEB938e6007bc1a62f6a84a9 Lottery No:  1 Ticket No:  428 Status:  0
Account:  0x2279f524c613444ebC58d7C335a466944fdb7ebE Lottery No:  1 Ticket No:  432 Status:  0
Account:  0x2279f524c613444ebC58d7C335a466944fdb7ebE Lottery No:  1 Ticket No:  431 Status:  0
Account:  0xf191132038f5e646b170174F54e0f583A5d67669 Lottery No:  1 Ticket No:  435 Status:  0
Account:  0xf191132038f5e646b170174F54e0f583A5d67669 Lottery No:  1 Ticket No:  434 Status:  0
Account:  0x6F79eabb62553D02cB7311Be635c6614ecc1192a Lottery No:  1 Ticket No:  438 Status:  0
Account:  0x6F79eabb62553D02cB7311Be635c6614ecc1192a Lottery No:  1 Ticket No:  437 Status:  0
Account:  0xCC0aF160ffA6a9a46C505BcB958f08b3e72880c5 Lottery No:  1 Ticket No:  441 Status:  0
Account:  0xCC0aF160ffA6a9a46C505BcB958f08b3e72880c5 Lottery No:  1 Ticket No:  440 Status:  0
Account:  0x38535fF072c0997aC53E81fE3E0d33D78b95E3D7 Lottery No:  1 Ticket No:  444 Status:  0
Account:  0x38535fF072c0997aC53E81fE3E0d33D78b95E3D7 Lottery No:  1 Ticket No:  443 Status:  0
Account:  0x25795F5e71274f08Efe5125f0d6f094a28A094B9 Lottery No:  1 Ticket No:  447 Status:  0
Account:  0x25795F5e71274f08Efe5125f0d6f094a28A094B9 Lottery No:  1 Ticket No:  446 Status:  0
Account:  0xd3fACBBDd874D42A8b991f3735956a9ac1e86bf8 Lottery No:  1 Ticket No:  450 Status:  0
Account:  0xd3fACBBDd874D42A8b991f3735956a9ac1e86bf8 Lottery No:  1 Ticket No:  449 Status:  0
Account:  0x4BAc3e3F412ceeFAB54257edCE1281ea608b2EdC Lottery No:  1 Ticket No:  453 Status:  0
Account:  0x4BAc3e3F412ceeFAB54257edCE1281ea608b2EdC Lottery No:  1 Ticket No:  452 Status:  0
Account:  0xbEd2803ae24051A17E49cb9147519F84564d8f3e Lottery No:  1 Ticket No:  456 Status:  0
Account:  0xbEd2803ae24051A17E49cb9147519F84564d8f3e Lottery No:  1 Ticket No:  455 Status:  0
Account:  0x3D6441545B6a81d3ce7C2E58413Ff95CBF3583b4 Lottery No:  1 Ticket No:  459 Status:  0
Account:  0x3D6441545B6a81d3ce7C2E58413Ff95CBF3583b4 Lottery No:  1 Ticket No:  458 Status:  0
Account:  0x26d75bAf76d6A2E56d9E8C20C940dBc9f3159fe7 Lottery No:  1 Ticket No:  462 Status:  0
Account:  0x26d75bAf76d6A2E56d9E8C20C940dBc9f3159fe7 Lottery No:  1 Ticket No:  461 Status:  0
Account:  0x99e1c67540C3B0C0Ea2e4a71659AB2AA26E40c0a Lottery No:  1 Ticket No:  465 Status:  0
Account:  0x99e1c67540C3B0C0Ea2e4a71659AB2AA26E40c0a Lottery No:  1 Ticket No:  464 Status:  0
Account:  0x494A92438b44A40e181C251BAF9d6aCEE2666bEd Lottery No:  1 Ticket No:  468 Status:  0
Account:  0x494A92438b44A40e181C251BAF9d6aCEE2666bEd Lottery No:  1 Ticket No:  467 Status:  0
Account:  0xFB51438be50d5e6Fc15Df6CBd590615759C20f32 Lottery No:  1 Ticket No:  471 Status:  0
Account:  0xFB51438be50d5e6Fc15Df6CBd590615759C20f32 Lottery No:  1 Ticket No:  470 Status:  0
Account:  0xB44981f9a1d5d3f9FE8DC3BB6C5E34Bd96e4b452 Lottery No:  1 Ticket No:  474 Status:  0
Account:  0xB44981f9a1d5d3f9FE8DC3BB6C5E34Bd96e4b452 Lottery No:  1 Ticket No:  473 Status:  0
Account:  0x2a5Fff3633f984327bDa6809008160BA2B3F2ff0 Lottery No:  1 Ticket No:  477 Status:  0
Account:  0x2a5Fff3633f984327bDa6809008160BA2B3F2ff0 Lottery No:  1 Ticket No:  476 Status:  0
Account:  0x408c8FFaA5563491374477E08E817EF99dFE1b04 Lottery No:  1 Ticket No:  480 Status:  0
Account:  0x408c8FFaA5563491374477E08E817EF99dFE1b04 Lottery No:  1 Ticket No:  479 Status:  0
Account:  0x6b4FF946AC24660217D021928b4b4e611B9b713D Lottery No:  1 Ticket No:  483 Status:  0
Account:  0x6b4FF946AC24660217D021928b4b4e611B9b713D Lottery No:  1 Ticket No:  482 Status:  0
Account:  0x50e835E28eCec5CD17B7ffD4C6541198E9770D99 Lottery No:  1 Ticket No:  486 Status:  0
Account:  0x50e835E28eCec5CD17B7ffD4C6541198E9770D99 Lottery No:  1 Ticket No:  485 Status:  0
Account:  0x5b9E6836227E385f6fb285c2811A8eEFaFf499b7 Lottery No:  1 Ticket No:  489 Status:  0
Account:  0x5b9E6836227E385f6fb285c2811A8eEFaFf499b7 Lottery No:  1 Ticket No:  488 Status:  0
Account:  0x9546e51aFDE9619B6c4a4cd6aaAC313C0021a190 Lottery No:  1 Ticket No:  492 Status:  0
Account:  0x9546e51aFDE9619B6c4a4cd6aaAC313C0021a190 Lottery No:  1 Ticket No:  491 Status:  0
Account:  0xCed6A146f052676d39A26f01e9D7fa701686ccC0 Lottery No:  1 Ticket No:  495 Status:  0
Account:  0xCed6A146f052676d39A26f01e9D7fa701686ccC0 Lottery No:  1 Ticket No:  494 Status:  0
Account:  0x6A972d4C3858e9ccd7F2ffd4e4c1C4d2DCeC4349 Lottery No:  1 Ticket No:  498 Status:  0
Account:  0x6A972d4C3858e9ccd7F2ffd4e4c1C4d2DCeC4349 Lottery No:  1 Ticket No:  497 Status:  0
Account:  0x5b58160cf9d494C1916F0A8BF91E594b75e97F2E Lottery No:  1 Ticket No:  501 Status:  0
Account:  0x5b58160cf9d494C1916F0A8BF91E594b75e97F2E Lottery No:  1 Ticket No:  500 Status:  0
Account:  0x373def92330e8b0591eC409fc8e341A44Cda8101 Lottery No:  1 Ticket No:  504 Status:  0
Account:  0x373def92330e8b0591eC409fc8e341A44Cda8101 Lottery No:  1 Ticket No:  503 Status:  0
Account:  0xf06a893DdCD911acBbaBcfC7F7dcbE6359fF71cb Lottery No:  1 Ticket No:  507 Status:  0
Account:  0xf06a893DdCD911acBbaBcfC7F7dcbE6359fF71cb Lottery No:  1 Ticket No:  506 Status:  0
Account:  0x232238D5424F1a4F6D34497c13F5620c824311a4 Lottery No:  1 Ticket No:  510 Status:  0
Account:  0x232238D5424F1a4F6D34497c13F5620c824311a4 Lottery No:  1 Ticket No:  509 Status:  0
Account:  0x85F2797A9D979efde1E4d813D9fD873FcbB2A260 Lottery No:  1 Ticket No:  513 Status:  0
Account:  0x85F2797A9D979efde1E4d813D9fD873FcbB2A260 Lottery No:  1 Ticket No:  512 Status:  0
Account:  0xD5DBDE850ca22Cba4dBb52259FbcF20c9a581f8E Lottery No:  1 Ticket No:  516 Status:  0
Account:  0xD5DBDE850ca22Cba4dBb52259FbcF20c9a581f8E Lottery No:  1 Ticket No:  515 Status:  0
Account:  0xE69712573a97ee5a12e312f414955865BDC702B2 Lottery No:  1 Ticket No:  519 Status:  0
Account:  0xE69712573a97ee5a12e312f414955865BDC702B2 Lottery No:  1 Ticket No:  518 Status:  0
Account:  0x8077D48e3c898f6b7C725F5231a734b2202E69bA Lottery No:  1 Ticket No:  522 Status:  0
Account:  0x8077D48e3c898f6b7C725F5231a734b2202E69bA Lottery No:  1 Ticket No:  521 Status:  0
Account:  0x4b22aE32eDAB35696aB5c137d22C131e4D375B1C Lottery No:  1 Ticket No:  525 Status:  0
Account:  0x4b22aE32eDAB35696aB5c137d22C131e4D375B1C Lottery No:  1 Ticket No:  524 Status:  0
Account:  0xdC526eC8b16f61D447C5756CB46710C709f0422b Lottery No:  1 Ticket No:  528 Status:  0
Account:  0xdC526eC8b16f61D447C5756CB46710C709f0422b Lottery No:  1 Ticket No:  527 Status:  0
Account:  0xEf53a6cf55e73f46dA68DfE12370b1A2c1538C09 Lottery No:  1 Ticket No:  531 Status:  0
Account:  0xEf53a6cf55e73f46dA68DfE12370b1A2c1538C09 Lottery No:  1 Ticket No:  530 Status:  0
Account:  0xC0203E7E5C4765982FdaA9c7290929591d9188e8 Lottery No:  1 Ticket No:  534 Status:  0
Account:  0xC0203E7E5C4765982FdaA9c7290929591d9188e8 Lottery No:  1 Ticket No:  533 Status:  0
Account:  0x59353072576DB1b689f05E488aED224B621d03A8 Lottery No:  1 Ticket No:  537 Status:  0
Account:  0x59353072576DB1b689f05E488aED224B621d03A8 Lottery No:  1 Ticket No:  536 Status:  0
Account:  0x8bca7e34053E6B4ae5e37C52086cA1A13Dc3a346 Lottery No:  1 Ticket No:  540 Status:  0
Account:  0x8bca7e34053E6B4ae5e37C52086cA1A13Dc3a346 Lottery No:  1 Ticket No:  539 Status:  0
Account:  0xae1038F7158f1230dB7555f69Ff9AaA3bB406Bd6 Lottery No:  1 Ticket No:  543 Status:  0
Account:  0xae1038F7158f1230dB7555f69Ff9AaA3bB406Bd6 Lottery No:  1 Ticket No:  542 Status:  0
Account:  0x70CCC29021f555f8d4b7f54C2FC60FB239Af936f Lottery No:  1 Ticket No:  546 Status:  0
Account:  0x70CCC29021f555f8d4b7f54C2FC60FB239Af936f Lottery No:  1 Ticket No:  545 Status:  0
Account:  0xc92eAd7784e6a71165567509903BE399E50B98B6 Lottery No:  1 Ticket No:  549 Status:  0
Account:  0xc92eAd7784e6a71165567509903BE399E50B98B6 Lottery No:  1 Ticket No:  548 Status:  0
Account:  0xa77C10528AE477E6F26a9f3Ab31A6277fd131e53 Lottery No:  1 Ticket No:  552 Status:  0
Account:  0xa77C10528AE477E6F26a9f3Ab31A6277fd131e53 Lottery No:  1 Ticket No:  551 Status:  0
Account:  0x4296109fdbb543542975314dB1F1149AE1d7020f Lottery No:  1 Ticket No:  555 Status:  0
Account:  0x4296109fdbb543542975314dB1F1149AE1d7020f Lottery No:  1 Ticket No:  554 Status:  0
Account:  0x88AF3AF5c9ae3A6D655349B4505CDbBe3a7872BD Lottery No:  1 Ticket No:  558 Status:  0
Account:  0x88AF3AF5c9ae3A6D655349B4505CDbBe3a7872BD Lottery No:  1 Ticket No:  557 Status:  0
Account:  0xAf881fd46C049678C48b29d0B704ebb725209785 Lottery No:  1 Ticket No:  561 Status:  0
Account:  0xAf881fd46C049678C48b29d0B704ebb725209785 Lottery No:  1 Ticket No:  560 Status:  0
Account:  0x3221C962CBf6A6349F074Ee88BC0E95B75CC8475 Lottery No:  1 Ticket No:  564 Status:  0
Account:  0x3221C962CBf6A6349F074Ee88BC0E95B75CC8475 Lottery No:  1 Ticket No:  563 Status:  0
Account:  0x13F2b85Bd27c5ee7d345bF49CeE81E8535d7EDDD Lottery No:  1 Ticket No:  567 Status:  0
Account:  0x13F2b85Bd27c5ee7d345bF49CeE81E8535d7EDDD Lottery No:  1 Ticket No:  566 Status:  0
Account:  0x414a93db5E3970F8f3a8adA5D657128347113f23 Lottery No:  1 Ticket No:  570 Status:  0
Account:  0x414a93db5E3970F8f3a8adA5D657128347113f23 Lottery No:  1 Ticket No:  569 Status:  0
Account:  0x2Ac2425b73e2f2b36E3A2FDB8fB047Be14fff7e7 Lottery No:  1 Ticket No:  573 Status:  0
Account:  0x2Ac2425b73e2f2b36E3A2FDB8fB047Be14fff7e7 Lottery No:  1 Ticket No:  572 Status:  0
Account:  0xBdDc72542C65f0E5a87f37d8Cf9C0DE79a064555 Lottery No:  1 Ticket No:  576 Status:  0
Account:  0xBdDc72542C65f0E5a87f37d8Cf9C0DE79a064555 Lottery No:  1 Ticket No:  575 Status:  0
Account:  0x6de8C497d78bac766521A0888B68B86e360C87A3 Lottery No:  1 Ticket No:  579 Status:  0
Account:  0x6de8C497d78bac766521A0888B68B86e360C87A3 Lottery No:  1 Ticket No:  578 Status:  0
Account:  0x63b70ECdB29c7b8a8363EE6c0a09f1c4B3B01924 Lottery No:  1 Ticket No:  582 Status:  0
Account:  0x63b70ECdB29c7b8a8363EE6c0a09f1c4B3B01924 Lottery No:  1 Ticket No:  581 Status:  0
Account:  0x42E442854788547eB6C14510231D38CC9A611628 Lottery No:  1 Ticket No:  585 Status:  0
Account:  0x42E442854788547eB6C14510231D38CC9A611628 Lottery No:  1 Ticket No:  584 Status:  0
Account:  0xC54cE2286499F0E364C01f71064b55A4e8475169 Lottery No:  1 Ticket No:  588 Status:  0
Account:  0xC54cE2286499F0E364C01f71064b55A4e8475169 Lottery No:  1 Ticket No:  587 Status:  0
Account:  0x09764b4a1B5547F5822c5fEa1D36B51EE1299274 Lottery No:  1 Ticket No:  591 Status:  0
Account:  0x09764b4a1B5547F5822c5fEa1D36B51EE1299274 Lottery No:  1 Ticket No:  590 Status:  0
Account:  0xfd0386660Dd0382cBd76cF29991d37C18B66d177 Lottery No:  1 Ticket No:  594 Status:  0
Account:  0xfd0386660Dd0382cBd76cF29991d37C18B66d177 Lottery No:  1 Ticket No:  593 Status:  0
Account:  0x86B999D1665ADa43a646a2848e320cf5304E84A6 Lottery No:  1 Ticket No:  597 Status:  0
Account:  0x86B999D1665ADa43a646a2848e320cf5304E84A6 Lottery No:  1 Ticket No:  596 Status:  0
Account:  0x14CB39CB8c0cDcC7E5dfA0EEE89C3906EA449726 Lottery No:  1 Ticket No:  600 Status:  0
Account:  0x14CB39CB8c0cDcC7E5dfA0EEE89C3906EA449726 Lottery No:  1 Ticket No:  599 Status:  0
Account:  0x04475E5153E71ef8CcB90acC0a85CbDe064856Bd Lottery No:  1 Ticket No:  603 Status:  0
Account:  0x04475E5153E71ef8CcB90acC0a85CbDe064856Bd Lottery No:  1 Ticket No:  602 Status:  0
Account:  0x366ebc8A8Ab5f0159E42bd2a3996cB3cC15CEB0f Lottery No:  1 Ticket No:  606 Status:  0
Account:  0x366ebc8A8Ab5f0159E42bd2a3996cB3cC15CEB0f Lottery No:  1 Ticket No:  605 Status:  0
Account:  0xA850c2De85f3905925F06414fea036440Cc57A25 Lottery No:  1 Ticket No:  609 Status:  0
Account:  0xA850c2De85f3905925F06414fea036440Cc57A25 Lottery No:  1 Ticket No:  608 Status:  0
Account:  0x7768a1bB9aE37AFAc50B58deb57D3641BF39b5A1 Lottery No:  1 Ticket No:  612 Status:  0
Account:  0x7768a1bB9aE37AFAc50B58deb57D3641BF39b5A1 Lottery No:  1 Ticket No:  611 Status:  0
Account:  0x49F1730940c7787c0BEaF363d9c6f1C1fb7c1d5f Lottery No:  1 Ticket No:  615 Status:  0
Account:  0x49F1730940c7787c0BEaF363d9c6f1C1fb7c1d5f Lottery No:  1 Ticket No:  614 Status:  0
Account:  0x01A28026B0Fbc7FA96bb2E5624650aE4112f2198 Lottery No:  1 Ticket No:  618 Status:  0
Account:  0x01A28026B0Fbc7FA96bb2E5624650aE4112f2198 Lottery No:  1 Ticket No:  617 Status:  0
Account:  0x2cd50aC5DFE02F7EcE8a62237D03ebE89708aA96 Lottery No:  1 Ticket No:  621 Status:  0
Account:  0x2cd50aC5DFE02F7EcE8a62237D03ebE89708aA96 Lottery No:  1 Ticket No:  620 Status:  0
Account:  0x07246CDeCfDb1410dc06e42152b3717BD4607C7a Lottery No:  1 Ticket No:  624 Status:  0
Account:  0x07246CDeCfDb1410dc06e42152b3717BD4607C7a Lottery No:  1 Ticket No:  623 Status:  0
Account:  0xD831c48b57d56f2b309909D7F9Cf1D666DDAd697 Lottery No:  1 Ticket No:  627 Status:  0
Account:  0xD831c48b57d56f2b309909D7F9Cf1D666DDAd697 Lottery No:  1 Ticket No:  626 Status:  0
Account:  0xcE8Fe8835611847D6BD4930718a5d3311f70e162 Lottery No:  1 Ticket No:  630 Status:  0
Account:  0xcE8Fe8835611847D6BD4930718a5d3311f70e162 Lottery No:  1 Ticket No:  629 Status:  0
Account:  0x7a36485A4EF13A4c830147732A705339Ee741720 Lottery No:  1 Ticket No:  633 Status:  0
Account:  0x7a36485A4EF13A4c830147732A705339Ee741720 Lottery No:  1 Ticket No:  632 Status:  0
Account:  0x585CFCD06aBE4493377F4DB0804C9c4E773A6213 Lottery No:  1 Ticket No:  636 Status:  0
Account:  0x585CFCD06aBE4493377F4DB0804C9c4E773A6213 Lottery No:  1 Ticket No:  635 Status:  0
Account:  0xB8415B106f08DfCFf5Ca67f6348983d3DF7500f2 Lottery No:  1 Ticket No:  639 Status:  0
Account:  0xB8415B106f08DfCFf5Ca67f6348983d3DF7500f2 Lottery No:  1 Ticket No:  638 Status:  0
Account:  0x32339b09691F8C91C7C43982B9f329f8c51F35b2 Lottery No:  1 Ticket No:  642 Status:  0
Account:  0x32339b09691F8C91C7C43982B9f329f8c51F35b2 Lottery No:  1 Ticket No:  641 Status:  0
Account:  0x3a7fdA001100ab8a8671465921B381DE3BABE3D8 Lottery No:  1 Ticket No:  645 Status:  0
Account:  0x3a7fdA001100ab8a8671465921B381DE3BABE3D8 Lottery No:  1 Ticket No:  644 Status:  0
Account:  0x747d0687047e3f444aC317C2812d7355E455D5Ea Lottery No:  1 Ticket No:  648 Status:  0
Account:  0x747d0687047e3f444aC317C2812d7355E455D5Ea Lottery No:  1 Ticket No:  647 Status:  0
Account:  0x395eED06975f94f735dF71f8b43E7bFc2Bb98da5 Lottery No:  1 Ticket No:  651 Status:  0
Account:  0x395eED06975f94f735dF71f8b43E7bFc2Bb98da5 Lottery No:  1 Ticket No:  650 Status:  0
Account:  0xa26E8e68EA0B54A803006DE95aA9DAc5DF46AC4e Lottery No:  1 Ticket No:  654 Status:  0
Account:  0xa26E8e68EA0B54A803006DE95aA9DAc5DF46AC4e Lottery No:  1 Ticket No:  653 Status:  0
Account:  0xbE9C442ab728499e86Fe4303D0D2a35cCdB4A207 Lottery No:  1 Ticket No:  657 Status:  0
Account:  0xbE9C442ab728499e86Fe4303D0D2a35cCdB4A207 Lottery No:  1 Ticket No:  656 Status:  0
Account:  0x3854D512A7ce98365D96283b6216A2ce288Cab19 Lottery No:  1 Ticket No:  660 Status:  0
Account:  0x3854D512A7ce98365D96283b6216A2ce288Cab19 Lottery No:  1 Ticket No:  659 Status:  0
Account:  0xf39106A8058065456C334F6712016039e773b4a2 Lottery No:  1 Ticket No:  663 Status:  0
Account:  0xf39106A8058065456C334F6712016039e773b4a2 Lottery No:  1 Ticket No:  662 Status:  0
Account:  0xB1c618fA4033f809B93179adf6D2Eb05a297cdD0 Lottery No:  1 Ticket No:  666 Status:  0
Account:  0xB1c618fA4033f809B93179adf6D2Eb05a297cdD0 Lottery No:  1 Ticket No:  665 Status:  0
Account:  0x3017901a5246A49F7C7FDF543fd861F336d80755 Lottery No:  1 Ticket No:  669 Status:  0
Account:  0x3017901a5246A49F7C7FDF543fd861F336d80755 Lottery No:  1 Ticket No:  668 Status:  0
Account:  0x8a54eD629eeF17b33473F6cBE6f473FE5807f9e3 Lottery No:  1 Ticket No:  672 Status:  0
Account:  0x8a54eD629eeF17b33473F6cBE6f473FE5807f9e3 Lottery No:  1 Ticket No:  671 Status:  0
Account:  0x8dCD13F96b3ab86fEC11609efD37a54Df1B8fF15 Lottery No:  1 Ticket No:  675 Status:  0
Account:  0x8dCD13F96b3ab86fEC11609efD37a54Df1B8fF15 Lottery No:  1 Ticket No:  674 Status:  0
Account:  0x3e2d94f8F97d2221330a886562aA130243fcec72 Lottery No:  1 Ticket No:  678 Status:  0
Account:  0x3e2d94f8F97d2221330a886562aA130243fcec72 Lottery No:  1 Ticket No:  677 Status:  0
Account:  0x44F390C9D90F52c2f30a692eb059AD9ad5425bF2 Lottery No:  1 Ticket No:  681 Status:  0
Account:  0x44F390C9D90F52c2f30a692eb059AD9ad5425bF2 Lottery No:  1 Ticket No:  680 Status:  0
Account:  0xD54f89bBde25089BF9eA5259d4df5E080152281C Lottery No:  1 Ticket No:  684 Status:  0
Account:  0xD54f89bBde25089BF9eA5259d4df5E080152281C Lottery No:  1 Ticket No:  683 Status:  0
Account:  0xf210DD3396d4eF823B0b29CE2942Ac8fb39e75bB Lottery No:  1 Ticket No:  687 Status:  0
Account:  0xf210DD3396d4eF823B0b29CE2942Ac8fb39e75bB Lottery No:  1 Ticket No:  686 Status:  0
Account:  0x10730Da6e58bc942b0f1322CDd56d38B098085C0 Lottery No:  1 Ticket No:  690 Status:  0
Account:  0x10730Da6e58bc942b0f1322CDd56d38B098085C0 Lottery No:  1 Ticket No:  689 Status:  0
Account:  0x5b67F6027025cC468C96f3746e7c61DDcc61C079 Lottery No:  1 Ticket No:  693 Status:  0
Account:  0x5b67F6027025cC468C96f3746e7c61DDcc61C079 Lottery No:  1 Ticket No:  692 Status:  0
Account:  0x7cBFb8295926556C7b15770c1c8ad6187c298541 Lottery No:  1 Ticket No:  696 Status:  0
Account:  0x7cBFb8295926556C7b15770c1c8ad6187c298541 Lottery No:  1 Ticket No:  695 Status:  0
Account:  0xcaA795f7D6944402073cFc707a4F0191F509B457 Lottery No:  1 Ticket No:  699 Status:  0
Account:  0xcaA795f7D6944402073cFc707a4F0191F509B457 Lottery No:  1 Ticket No:  698 Status:  0
Account:  0x0A2C9f2761059e9de859cE4fEE26869949cfB265 Lottery No:  1 Ticket No:  702 Status:  0
Account:  0x0A2C9f2761059e9de859cE4fEE26869949cfB265 Lottery No:  1 Ticket No:  701 Status:  0
Account:  0x98da11feC137884eC2A27c7b6e846E37fC1AfA4a Lottery No:  1 Ticket No:  705 Status:  0
Account:  0x98da11feC137884eC2A27c7b6e846E37fC1AfA4a Lottery No:  1 Ticket No:  704 Status:  0
Account:  0x5072130Dd0FAA823FAA69be97E206996aB44BF75 Lottery No:  1 Ticket No:  708 Status:  0
Account:  0x5072130Dd0FAA823FAA69be97E206996aB44BF75 Lottery No:  1 Ticket No:  707 Status:  0
Account:  0x21B2909D6Bb112d70143C84F5228f3fdB1750ABa Lottery No:  1 Ticket No:  711 Status:  0
Account:  0x21B2909D6Bb112d70143C84F5228f3fdB1750ABa Lottery No:  1 Ticket No:  710 Status:  0
Account:  0x42C095e9cb2A313F3E5100d7B5c5007F208e8B6c Lottery No:  1 Ticket No:  714 Status:  0
Account:  0x42C095e9cb2A313F3E5100d7B5c5007F208e8B6c Lottery No:  1 Ticket No:  713 Status:  0
Account:  0x2f8130495ed8c2602bA032C1Da829CccF2FcA4b8 Lottery No:  1 Ticket No:  717 Status:  0
Account:  0x2f8130495ed8c2602bA032C1Da829CccF2FcA4b8 Lottery No:  1 Ticket No:  716 Status:  0
Account:  0x43cF8F85987E0a2509eBB7Fcc4B743f584B8C9B3 Lottery No:  1 Ticket No:  720 Status:  0
Account:  0x43cF8F85987E0a2509eBB7Fcc4B743f584B8C9B3 Lottery No:  1 Ticket No:  719 Status:  0
Account:  0x974f1170ed1266459Aa808E170a53D27E3b8D3f9 Lottery No:  1 Ticket No:  723 Status:  0
